:100000000C9462000C948A000C948A000C948A0070
:100010000C948A000C948A000C948A000C948A0038
:100020000C948A000C948A000C948A000C948A0028
:100030000C948A000C948A000C948A000C948A0018
:100040000C9454050C948A000C94C4050C949E05E1
:100050000C948A000C948A000C948A000C948A00F8
:100060000C948A000C948A000000000025002800EF
:100070002B0000000000240027002A0000000000E0
:1000800023002600290004040404040404040202DA
:100090000202020203030303030301020408102007
:1000A0004080010204081020010204081020000012
:1000B0000008000201000003040700000000000027
:1000C0000000F60511241FBECFEFD8E0DEBFCDBF84
:1000D00023E0A4EEB2E001C01D92AA3AB207E1F714
:1000E00012E0A0E0B1E0EEE6F9E102C005900D9269
:1000F000A43EB107D9F710E0C2E6D0E004C02197D2
:10010000FE010E94D709C136D107C9F70E948E06A9
:100110000C94B50C0C9400008234B9F028F48E32A3
:1001200041F0883391F008958C34C9F08635B9F0E8
:1001300008958093A6038091A503883021F086E07E
:1001400080939D03089587E0FBCF8093A603809161
:10015000A503883011F088E0F3CF89E0F1CF8093D8
:10016000A6038091A503883011F08AE0E9CF8BE0E7
:10017000E7CF883058F49BB121E030E001C0220F76
:100180008A95EAF7892F822B8BB908958E3070F407
:1001900025B18850990B41E050E0BA0102C0660FCA
:1001A000771F8A95E2F7CB01822B85B908958830B5
:1001B00070F44BB121E030E0B90102C0660F771F47
:1001C0008A95E2F7CB01809584238BB908958E3010
:1001D00068F445B1682F6850770B81E090E001C06A
:1001E000880F6A95EAF78095842385B9089590E091
:1001F000FC01E255FF4F2491FC01E656FF4F34917C
:10020000FC01EA57FF4FE491EE23C1F1222339F0BC
:100210002330E9F090F4213001F1223011F1F0E0C7
:10022000EE0FFF1FE458FF4FA591B491EC91E3232B
:1002300081E090E029F580E008952730A9F028308A
:10024000C9F0243061F7809180008F7D03C08091D8
:1002500080008F7780938000E2CF84B58F7784BD54
:10026000DECF84B58F7DFBCF8091B0008F778093F8
:10027000B000D5CF8091B0008F7DF9CF80E090E0C5
:100280000895CF93DF9390E0FC01E656FF4F249151
:100290008A579F4FFC0184918823D1F090E0880F0A
:1002A000991FFC01EE58FF4FA591B491FC01E8594C
:1002B000FF4FC591D49161110EC09FB7F8948C91F6
:1002C000E22FE0958E238C932881E223E8839FBF61
:1002D000DF91CF9108958FB7F894EC91E22BEC93D6
:1002E0008FBFF6CF8230910538F0880F991F880FA5
:1002F000991F05970197F1F70895EF92FF920F93D9
:100300001F93CF93DF938C01862F8150990BEC01C3
:10031000EE24E394F12CCF3FDC0731F18091A2036E
:1003200097010C2E02C0220F331F0A94E2F72023FC
:100330003123232BB1F00E94B9008091A40390E0F7
:100340000E9472018091A0030E94B9008091A403D1
:1003500090E00E9472018091A0030E94D700219733
:10036000DACF0E94D700E9CFDF91CF911F910F9193
:10037000FF90EF9008950F931F93CF93DF93EC01BD
:1003800080919F030E94B90063E086E090E00E94A4
:100390007D0160919D03CE010E947D01C0919C036F
:1003A000D0E010E000E08091A40390E02197E0F01D
:1003B0000E9472018091A0030E94B9008091A40361
:1003C00090E00E9472018091A1030E94F7000C2E20
:1003D00002C0880F991F0A94E2F7082B192B80910D
:1003E000A0030E94D700DFCF0E94720180919F037B
:1003F0000E94D7008091A40390E00E947201C8017E
:10040000DF91CF911F910F9108950F931F93CF9379
:10041000DF93CCE9D3E089818250990B03E110E0AE
:1004200002C0000F111F8A95E2F78B810E94B9006C
:1004300069816D5FC8010E947D018B810E94D70098
:10044000888590E0DF91CF911F910F910C947201FC
:100450000F931F93CF93DF93CCE9D3E08981825030
:10046000990B00E110E002C0000F111F8A95E2F71E
:100470008B810E94B90069816D5FC8010E947D0176
:100480008B810E94D700888590E0DF91CF911F91EA
:100490000F910C9472013FB7F8948091FB029091F8
:1004A000FC02A091FD02B091FE0226B5A89B05C0FA
:1004B0002F3F19F00196A11DB11D3FBFBA2FA92FE3
:1004C000982F8827BC01CD01620F711D811D911DE0
:1004D00042E0660F771F881F991F4A95D1F708954C
:1004E0008F929F92AF92BF92CF92DF92EF92FF9244
:1004F0000E944B024B015C0184E1C82ED12CE12CFF
:10050000F12C0E944B02681979098A099B09683EFF
:10051000734081059105A8F321E0C21AD108E108D2
:10052000F10888EE880E83E0981EA11CB11CC1144E
:10053000D104E104F10429F7FF90EF90DF90CF9010
:10054000BF90AF909F908F9008952FB7F8946091CF
:10055000F7027091F8028091F9029091FA022FBF90
:100560000895CF92DF92EF92FF92CF930E94A5025F
:100570006B017C01C091A703CC23D1F080919F0334
:100580000E94B9008091A1030E94F700C82F811139
:100590000BC00E94A5026C197D098E099F09653662
:1005A00071058105910570F380919F030E94D7002A
:1005B0008C2FCF91FF90EF90DF90CF900895EF9226
:1005C000FF920F931F93CF93DF937C018B01CCE9B4
:1005D000D3E08B810E94B90063E085E090E00E9447
:1005E0007D016981C7010E947D016881C8010E9467
:1005F0007D018B810E94D700888590E00E94720166
:10060000DF91CF911F910F91FF90EF900C94B10269
:10061000AF92BF92CF92DF92EF92FF920F931F9310
:10062000CF93DF936C017B018B01040F151FEB014E
:100630005E01AE18BF08C017D10759F06991D60105
:10064000ED91FC910190F081E02DC6010995892B77
:1006500079F7C501DF91CF911F910F91FF90EF9036
:10066000DF90CF90BF90AF900895FC01538D448DE3
:10067000252F30E0842F90E0821B930B541710F04D
:10068000CF96089501970895FC01918D828D98175A
:1006900061F0A28DAE0FBF2FB11D5D968C91928D32
:1006A0009F5F9F73928F90E008958FEF9FEF089563
:1006B000FC01918D828D981731F0828DE80FF11D2C
:1006C000858D90E008958FEF9FEF0895FC01918D47
:1006D000228D892F90E0805C9F4F821B91098F7340
:1006E000992708958FEF92E00E94660321E0892BFD
:1006F00009F420E0822F089580E090E0892B29F012
:100700000E94720381110C9400000895FC01A48DD5
:10071000A80FB92FB11DA35ABF4F2C91848D90E023
:1007200001968F739927848FA689B7892C93A08906
:10073000B1898C91837080648C93938D848D981390
:1007400006C00288F389E02D80818F7D8083089523
:10075000EF92FF920F931F93CF93DF93EC0181E011
:10076000888F9B8D8C8D98131AC0E889F9898081B8
:1007700085FF15C09FB7F894EE89FF896083E889EB
:10078000F98980818370806480839FBF81E090E0DD
:10079000DF91CF911F910F91FF90EF900895F62E6A
:1007A0000B8D10E00F5F1F4F0F731127E02E8C8D04
:1007B0008E110CC00FB607FCFACFE889F989808149
:1007C00085FFF5CFCE010E948603F1CFEB8DEC0FB4
:1007D000FD2FF11DE35AFF4FF0829FB7F8940B8F66
:1007E000EA89FB8980818062CFCFCF93DF93EC01D0
:1007F000888D8823B9F0AA89BB89E889F9898C9109
:1008000085FD03C0808186FD0DC00FB607FCF7CFC4
:100810008C9185FFF2CF808185FFEDCFCE010E94C4
:100820008603E9CFDF91CF910895009769F0FC012D
:1008300001900020E9F73197AF01481B590BBC012B
:100840008FEF92E00C94080390E080E008958F927F
:100850009F92AF92BF920F931F93CF93DF93CDB729
:10086000DEB7A1970FB6F894DEBF0FBECDBF19A2B9
:10087000423008F44AE08E010F5D1F4F842E912C08
:10088000B12CA12CA50194010E94B509E62FB90154
:10089000CA01EA30D4F4E05DD801EE938D01232B38
:1008A000242B252B79F7CD010E941504A1960FB6B4
:1008B000F894DEBF0FBECDBFDF91CF911F910F9196
:1008C000BF90AF909F908F900895E95CE5CF0C9416
:1008D000150442E050E067E171E08FEF92E00C9484
:1008E0000803CF93DF930E941504EC010E94690472
:1008F0008C0F9D1FDF91CF9108958AE191E00E94B6
:10090000710486E291E00E9471048CE591E00E94FE
:1009100071048CE791E00E9471048CE891E00E94E0
:10092000710484EA91E00E94710485EB91E00E94D9
:10093000710482ED91E00E9471048BEF91E00E94BE
:10094000710489E092E00C947104CF93DF93682FD7
:1009500070E090E080E04AE00E942704EC010E94F1
:1009600069048C0F9D1FDF91CF9108956BE172E0B8
:1009700084EE92E00E946D096BE172E090E080E00D
:100980000E946D09009731F48DE192E00E9471049C
:1009900080E008950E944F09809301016BE172E0AD
:1009A00090E080E00E946D09009771F30E944F096A
:1009B00090930401809303016BE172E090E080E08A
:1009C0000E946D09009701F30E944F098093020174
:1009D0006BE172E090E080E00E946D090097A1F267
:1009E0000E944F09809300018091030190910401BE
:1009F000892B19F48EE292E0C9CF809101018234F3
:100A000031F138F48E3259F08833E9F08CE392E01A
:100A1000BDCF8C34F1F08635C9F786E515C08093DB
:100A2000A6038091A503883061F086E080939D0342
:100A300080910201883079F0803129F18AE492E0D6
:100A4000A5CF87E0F3CF88E30E948C00F1CF82E44A
:100A5000FBCF8CE4F9CF9091A3039F3F71F080937B
:100A6000A50380939C038091A6030E948C00809133
:100A7000A3038F3F11F00E94D70080910001809363
:100A8000A40381E008959091A3039F3FB1F3809365
:100A9000A50380939C038091A6030E948C00809103
:100AA000A3030E94B900E9CF1F920F920FB60F92D5
:100AB00011242F933F938F939F93AF93BF93809174
:100AC000F7029091F802A091F902B091FA023091E8
:100AD000F60223E0230F2D3758F50196A11DB11D15
:100AE0002093F6028093F7029093F802A093F90204
:100AF000B093FA028091FB029091FC02A091FD025A
:100B0000B091FE020196A11DB11D8093FB0290934E
:100B1000FC02A093FD02B093FE02BF91AF919F91A2
:100B20008F913F912F910F900FBE0F901F901895AE
:100B300026E8230F0296A11DB11DD2CF1F920F925E
:100B40000FB60F9211242F933F934F935F936F93A0
:100B50007F938F939F93AF93BF93EF93FF938FEF09
:100B600092E00E948603FF91EF91BF91AF919F9118
:100B70008F917F916F915F914F913F912F910F9046
:100B80000FBE0F901F9018951F920F920FB60F92E5
:100B900011242F938F939F93EF93FF93E0910F0373
:100BA000F09110038081E0911503F091160382FD0E
:100BB0001BC09081809118038F5F8F732091190360
:100BC000821741F0E0911803F0E0E150FD4F958F5E
:100BD00080931803FF91EF919F918F912F910F9028
:100BE0000FBE0F901F9018958081F4CF10920203D2
:100BF0001092010388EE93E0A0E0B0E0809303033D
:100C000090930403A0930503B093060389E091E059
:100C1000909300038093FF0285EC90E090930C0387
:100C200080930B0384EC90E090930E0380930D036C
:100C300080EC90E09093100380930F0381EC90E0A0
:100C4000909312038093110382EC90E0909314032D
:100C50008093130386EC90E0909316038093150322
:100C6000109218031092190310921A0310921B038A
:100C700099E090939E038AE080939F0387E080939E
:100C8000A0038CE08093A1038BE08093A20388E013
:100C90008093A30326E92093A40380939C0380936D
:100CA000A50382E48093A60390939D0381E0809343
:100CB000A70361E089E00E94410180919E038F3F7C
:100CC00011F00E94D70061E080919F030E944101D2
:100CD00061E08091A0030E94410160E08091A10346
:100CE0000E94410161E08091A2030E944101809134
:100CF000A3038F3F19F061E00E9441018091A2039C
:100D00000E94D7008091A0030E94D70080919F038A
:100D10000E94D7008091A3030C94D700CF93DF9358
:100D200000D000D000D0CDB7DEB7789484B5826013
:100D300084BD84B5816084BD85B5826085BD85B57F
:100D4000816085BD80916E00816080936E001092FD
:100D50008100809181008260809381008091810078
:100D60008160809381008091800081608093800009
:100D70008091B10084608093B1008091B000816067
:100D80008093B00080917A00846080937A00809193
:100D90007A00826080937A0080917A0081608093EB
:100DA0007A0080917A00806880937A001092C10066
:100DB000E0910F03F091100382E08083E0910B0338
:100DC000F0910C031082E0910D03F0910E0381E08D
:100DD000808310921703E0911303F091140386E0CF
:100DE0008083E0911103F091120380818061808300
:100DF000E0911103F0911203808188608083E0917B
:100E00001103F0911203808180688083E0911103C7
:100E1000F091120380818F7D808361E08DE00E94DC
:100E2000410187E592E00E941504CE0101965C0124
:100E3000CC24CA94D12C50E0252E50E0352E8FEFD3
:100E400092E00E946603892B09F45CC08FEF92E068
:100E50000E944403E091F5028D3029F4E11109C0AC
:100E60000E947D044DC08A3009F0FAC1EE2309F4D6
:100E700047C08091E402803709F184F48336F1F0B1
:100E800044F48F3309F44AC08EE192E00E94710469
:100E9000E7CF853699F0883619F3F6CF863761F1BA
:100EA0005CF4823759F0833779F70E94B60488E101
:100EB00091E00E94150424C0893734F7E93008F026
:100EC00059C080919E038F3F09F059C00E94700263
:100ED0008091E402803709F411C10CF063C08336BD
:100EE00009F469C1853609F441C180919E038F3FA1
:100EF00039F00E94D70004C087E592E00E946704A1
:100F00001092F5022114310409F499CF0E94720362
:100F1000882309F490CF0E9400008DCF80E692E0F4
:100F20000E94710481E792E00E94670480910101B0
:100F30000E94A50488E792E00E9467046091030183
:100F40007091040190E080E04AE00E9427040E9432
:100F500069048FE792E00E946704809102010E9479
:100F6000A50485E892E00E946704809100010E9438
:100F7000A504C6CF0E94B6048111A3CFC1CF809132
:100F80009F030E94D7008091A40390E00E94720109
:100F900080919E030E94B9008091A40390E00E947A
:100FA000720194CF823741F1873709F09ECF0E94BA
:100FB000A5022B013C010E9405026CE08FEF92E03C
:100FC0000E94A8031092F50210E000E00E94A50222
:100FD0006419750986099709693E73408105910571
:100FE00078F18DE892E00E9471040E94280282EA62
:100FF00092E00E94670479CF0E9470021092F5027D
:1010000010E000E080910301909104010817190796
:1010100008F06BCFC8010E94BB01F82E809102013D
:10102000883041F46F2D8FEF92E00E94A8030F5F8C
:101030001F4FE8CF692F8FEF92E00E94A803F2CFF5
:101040002D9A8FEF92E00E946603181619060CF095
:101050004BC08FEF92E00E944403E091F502FF2421
:10106000F394FE0EF092F502F0E0EC51FD4F808318
:10107000EF2DF0E0EC51FD4F10820E94A5022B01F4
:101080003C0180E1F812DDCF912C88248394890CF7
:10109000E92DF0E0EC51FD4F608178012FEFE21A6D
:1010A000F20A80910201883091F4062E000C770B31
:1010B000C8010E94DF02982C87019FE0991528F74C
:1010C00080EA92E00E9467041092F502BACF9394EE
:1010D0009394E82DF0E0EC51FD4F8081762F682F3E
:1010E000C8010E94DF02E8CF2D9880910301909102
:1010F00004010817190708F469CF77CF2D9A87EBF9
:1011000092E00E94710410E000E0F12C8091030154
:10111000909104010817190718F5C8010E94BB0136
:1011200099279F938F9388EC92E09F938F93BF9220
:10113000AF920E94DD09C5010E946704F3940F90ED
:101140000F900F900F900F900F9088E1F81205C04C
:1011500088E191E00E941504F12C0F5F1F4FD6CF5C
:1011600088E191E00E9415042D98BFCE0E940502EF
:1011700080919D038250990B02E110E002C0000FA4
:10118000111F8A95E2F780919F030E94B900609138
:101190009D036D5FC8010E947D018091A40390E0D2
:1011A0000E9472010E94B1020E9428028EEC92E01D
:1011B0000E9471049ACE912C812C10E000E0F12C59
:1011C000E12C80910301909104018816990680F525
:1011D000C4010E94BB01409102019C0133274830A9
:1011E00089F4C9018E0D9F1DB6010E94A1097C01E1
:1011F000800F911FB6010E94A1098C019FEF891AEF
:10120000990ADFCF892F99278E0D9F1DB6010E9465
:10121000A109080F191F820F931FB6010E94A1098F
:101220007C01C801B6010E94A1098E0D9F1DE2CF6D
:10123000102F0027E02AF12AFF92EF928DED92E025
:101240009F938F93BF92AF920E94DD09C5010E94C8
:1012500067040F900F900F900F900F900F9045CE56
:101260008F3739F4EE2309F44DCEE150E093F502C7
:1012700049CEE03170F491E09E0F9093F502F0E0DA
:10128000EC51FD4F8083E92FF0E0EC51FD4F1082CF
:1012900039CE67E08FEF92E00E94A80333CEFC01C5
:1012A00088279927E89421912032E9F3293010F01A
:1012B0002E30C8F32B3241F02D3239F4689404C03B
:1012C0000E949909820F911D219120532A30C0F369
:1012D0001EF4909581959F4F089548EA53E00E942F
:1012E00072090895FA01A191B081009719F410973D
:1012F000E1F0CD01DC01CD010D90002011F4C00121
:1013000013C0FB012191222319F02015D9F7F3CF47
:10131000FB012191201519F41E92119606C022237B
:10132000C1F70D900020A1F7D001FA01A193B0837D
:1013300008957AE0979F902D879F802D910D11241D
:101340000895AA1BBB1B51E107C0AA1FBB1FA6170C
:10135000B70710F0A61BB70B881F991F5A95A9F75E
:1013600080959095BC01CD010895A1E21A2EAA1B8B
:10137000BB1BFD010DC0AA1FBB1FEE1FFF1FA21745
:10138000B307E407F50720F0A21BB30BE40BF50B42
:10139000661F771F881F991F1A9469F760957095CB
:1013A000809590959B01AC01BD01CF010895EE0F92
:1013B000FF1F0590F491E02D0994AEE0B0E0E3EE5C
:1013C000F9E00C948C0C0D891E8986E08C831A83BD
:1013D00009838FEF9FE79E838D83AE01475E5F4F4A
:1013E0006F89788DCE0101960E94000A2F81388581
:1013F000020F131FF80110822E96E4E00C94A80C43
:10140000ABE0B0E0E6E0FAE00C947E0C7C013B013E
:101410008A01FC0117821682838181FFC8C1CE0137
:1014200001965C01F7019381F30193FD859193FF90
:1014300081913F01882309F453C1853239F493FD2A
:10144000859193FF81913F01853229F4B70190E0A6
:101450000E94F00BE7CF912C212C312CFFE1F315EA
:1014600038F08B3211F190F4803209F1833229F196
:1014700037FC3CC020ED280F2A3050F536FE20C046
:101480008AE0989E200D1124922E06C08D3291F094
:10149000803371F7689430F8F30193FD859193FFE1
:1014A00081913F018111DACF21C0689431F86894AD
:1014B00032F8F2CF689433F8EFCF689434F8ECCF79
:1014C000EAE02E9E200D1124222E689435F8E4CFF8
:1014D0008E3229F436FC04C1689436F8DDCF8C36A0
:1014E00019F4689437F8D8CF8836B1F2982F9F7DD9
:1014F00095549330E0F08336A1F18337C1F1833501
:1015000009F063C02801F2E04F0E511CF801C080C1
:10151000D180692D70E036FC02C06FEF7FEFC6010D
:101520000E94DA0B4C01689437F882010AC00C5F04
:101530001F4FFFE3F98388248394912C6501E8947D
:1015400037F833FE2DC0522C8114910471F55520CB
:1015500009F468CFB70180E290E00E94F00B5A9442
:10156000F6CFF801808189830E5F1F4FE4CF2801F9
:10157000F2E04F0E511CF801C080D180692D70E05F
:1015800036FC02C06FEF7FEFC6010E94E50B4C01F5
:101590008201D5CFB70180E290E00E94F00B2A943F
:1015A0002814190409F0B0F7CECFF60137FC859165
:1015B00037FE81916F01B70190E00E94F00B51104E
:1015C0005A94F1E08F1A9108BFCF843619F089360A
:1015D00009F077C0F80137FE6BC0608171818281AC
:1015E00093810C5F1F4FF32DFF763F2E97FF09C0AD
:1015F00090958095709561957F4F8F4F9F4F689420
:1016000037F82AE030E0A5010E94200CC82ECA1845
:101610008C2C432C36FE0CC0E89440F8C91440F4DE
:1016200034FE05C032FC03C0F32DFE7E4F2E892C04
:1016300044FE95C0FE01EC0DF11D8081803309F060
:1016400087C0242D297E422E842D8870582E43FC7D
:1016500095C040FE8FC09C2C821418F42C0C922C48
:10166000981844FE91C0B70180E390E00E94F00B0F
:1016700042FE09C088E790E041FE02C088E590E0A4
:10168000B7010E94F00BC91408F48AC0CA94D12C87
:101690009FEFC91AD90ACA0CDB1CF60182916F01AF
:1016A000B70190E00E94F00BAC14BD04B1F74FCF2E
:1016B00060817181072E000C880B990B0E5F1F4F04
:1016C00092CFD32CE894D4F82AE030E0853739F172
:1016D000232D297FD22E8F3601F148F48835A9F0C9
:1016E000F701868197812B96E2E10C949A0C803762
:1016F00049F08837A9F7D4FE02C06894D2F820E1F7
:1017000030E00DC06894D4F8F6CF34FE03C0822FC9
:101710008660D82E20E132E002C028E030E0F801F7
:10172000D7FE0FC060817181828193810C5F1F4F52
:10173000A5010E94200CC82ECA183D2CE89437F849
:1017400067CF6081718190E080E00E5F1F4FF0CF26
:1017500042FC02C0839478CF8394839475CF842D08
:10176000867809F471CFF6CFB70180E290E00E944D
:10177000F00B83948214C0F3512C73CF522C581861
:10178000821408F46ECFF8CF842D867809F47BCFCD
:101790008BE241FE80E247FC8DE2B70190E071CF21
:1017A000B70180E390E00E94F00B9A946CCF8FEF2A
:1017B0009FEF99CFFC010590615070400110D8F760
:1017C000809590958E0F9F1F0895FC016150704089
:1017D00001900110D8F7809590958E0F9F1F089566
:1017E0000F931F93CF93DF93182F092FEB018B815A
:1017F00081FD09C01FEF0FEF812F902FDF91CF9157
:101800001F910F91089582FF14C02E813F818C811A
:101810009D81281739073CF4E881F981CF010196B1
:101820009983888310838E819F8101969F838E8305
:10183000E3CFE885F985812F0995892BA1F3DACFCC
:10184000FA01AA27283051F1203181F1E8946F93F1
:101850006E7F6E5F7F4F8F4F9F4FAF4FB1E03ED097
:10186000B4E03CD0670F781F891F9A1FA11D680F35
:10187000791F8A1F911DA11D6A0F711D811D911D68
:10188000A11D20D009F468943F912AE0269F1124DD
:101890003019305D3193DEF6CF010895462F477041
:1018A000405D4193B3E00FD0C9F7F6CF462F4F709C
:1018B000405D4A3318F0495D31FD4052419302D0FA
:1018C000A9F7EACFB4E0A6959795879577956795A0
:1018D000BA95C9F700976105710508959B01AC01A0
:1018E0000A2E06945795479537952795BA95C9F7C7
:1018F000620F731F841F951FA01D08952F923F92A2
:101900004F925F926F927F928F929F92AF92BF920F
:10191000CF92DF92EF92FF920F931F93CF93DF93BB
:10192000CDB7DEB7CA1BDB0B0FB6F894DEBF0FBE18
:10193000CDBF09942A88398848885F846E847D8465
:101940008C849B84AA84B984C884DF80EE80FD8067
:101950000C811B81AA81B981CE0FD11D0FB6F894DD
:0E196000DEBF0FBECDBFED010895F894FFCF9E
:10196E00964208000200000000A80308033503F5A4
:10197E00036603440358030D0A002D2D2D206565C3
:10198E0070202D2D2D00732C3C636869703E2C3C0D
:10199E0073697A653E2C3C6F72673E2C3C70696EA3
:1019AE005F64656C61793E202D2053657420636FF2
:1019BE006E66696775726174696F6E003F202D20C7
:1019CE005072696E742063757272656E7420636FE7
:1019DE006E66696775726174696F6E0072202D2074
:1019EE005265616420656570726F6D0077202D20E1
:1019FE00496E697469617465207772697465206DCA
:101A0E006F64650065202D204572617365206565E4
:101A1E0070726F6D0070202D20486578207072698D
:101A2E006E7420656570726F6D20636F6E74656E77
:101A3E00740063202D205072696E7420466C65749C
:101A4E00636865722D313620636865636B73756DDF
:101A5E00206F6620656570726F6D0068202D2054B2
:101A6E006869732068656C700076202D205072694D
:101A7E006E742076657273696F6E002C0007696E46
:101A8E0076616C696420636F6D6D616E64000769C9
:101A9E006E76616C69642073697A650007696E768B
:101AAE00616C696420636869700007696E76616CA9
:101ABE006964206F72670076322E302E31370A003D
:101ACE002D2D2D2073657474696E6773202D2D2D49
:101ADE0000636869703A200073697A653A20006F76
:101AEE0072673A200064656C61793A200007646180
:101AFE00746120726561642074696D656F75740020
:101B0E000C000D0A2D2D2D20777269746520646FDF
:101B1E006E65202D2D2D002D2D2D204865782064ED
:101B2E00756D70202D2D2D00253032582000076543
:101B3E006570726F6D206572617365640025303457
:041B4E00580A000031
:00000001FF
