:100000000C9462000C948A000C948A000C948A0070
:100010000C948A000C948A000C948A000C948A0038
:100020000C948A000C948A000C948A000C948A0028
:100030000C948A000C948A000C948A000C948A0018
:100040000C94E8040C948A000C94B6040C9490046C
:100050000C948A000C948A000C948A000C948A00F8
:100060000C948A000C948A000000000025002800EF
:100070002B0000000000240027002A0000000000E0
:1000800023002600290004040404040404040202DA
:100090000202020203030303030301020408102007
:1000A0004080010204081020010204081020000012
:1000B0000008000201000003040700000000000027
:1000C0000000320511241FBECFEFD8E0DEBFCDBF48
:1000D00023E0A4EAB2E001C01D92AA36B207E1F71C
:1000E00012E0A0E0B1E0EAE7F7E102C005900D926E
:1000F000A43AB107D9F710E0C2E6D0E004C02197D6
:10010000FE010E94DD08C136D107C9F70E94CA0569
:100110000C94BB0B0C940000883058F49BB121E088
:1001200030E001C0220F8A95EAF7892F822B8BB924
:1001300008958E3070F425B18850990B41E050E05D
:10014000BA0102C0660F771F8A95E2F7CB01822BB6
:1001500085B90895883070F44BB121E030E0B901E1
:1001600002C0660F771F8A95E2F7CB018095842342
:100170008BB908958E3068F445B1682F6850770BBD
:1001800081E090E001C0880F6A95EAF780958423AA
:1001900085B908958230910538F0880F991F880F2E
:1001A000991F05970197F1F70895EF92FF920F932A
:1001B0001F93CF93DF938C01862F8150990BEC0115
:1001C000EE24E394F12CCF3FDC0731F18091620300
:1001D00097010C2E02C0220F331F0A94E2F720234E
:1001E0003123232BB1F00E948C008091640390E0B6
:1001F0000E94CA00809160030E948C008091640379
:1002000090E00E94CA00809160030E94AA0021979A
:10021000DACF0E94AA00E9CFDF91CF911F910F9111
:10022000FF90EF9008950F931F93CF93DF93CCE54A
:10023000D3E089818250990B03E110E002C0000FE6
:10024000111F8A95E2F78B810E948C0069816D5F96
:10025000C8010E94D5008B810E94AA00888590E089
:10026000DF91CF911F910F910C94CA000F931F93B0
:10027000CF93DF93CCE5D3E089818250990B00E1E5
:1002800010E002C0000F111F8A95E2F78B810E94D7
:100290008C0069816D5FC8010E94D5008B810E942E
:1002A000AA00888590E0DF91CF911F910F910C9467
:1002B000CA00AF92BF92CF92DF92EF92FF920F935C
:1002C0001F93CF93DF936C017B018B01040F151FEC
:1002D000EB015E01AE18BF08C017D10759F0699154
:1002E000D601ED91FC910190F081E02DC6010995B8
:1002F000892B79F7C501DF91CF911F910F91FF9065
:10030000EF90DF90CF90BF90AF900895FC01538D98
:10031000448D252F30E0842F90E0821B930B5417DF
:1003200010F0CF96089501970895FC01918D828D6C
:10033000981761F0A28DAE0FBF2FB11D5D968C9105
:10034000928D9F5F9F73928F90E008958FEF9FEF44
:100350000895FC01918D828D981731F0828DE80F00
:10036000F11D858D90E008958FEF9FEF0895FC01BA
:10037000918D228D892F90E0805C9F4F821B910987
:100380008F73992708958FEB92E00E94B70121E0C7
:10039000892B09F420E0822F089580E090E0892BDA
:1003A00029F00E94C30181110C9400000895FC0102
:1003B000A48DA80FB92FB11DA35ABF4F2C91848DC6
:1003C00090E001968F739927848FA689B7892C9323
:1003D000A089B1898C91837080648C93938D848D76
:1003E000981306C00288F389E02D80818F7D808379
:1003F0000895EF92FF920F931F93CF93DF93EC0139
:1004000081E0888F9B8D8C8D98131AC0E889F989BB
:10041000808185FF15C09FB7F894EE89FF896083BE
:10042000E889F98980818370806480839FBF81E03F
:1004300090E0DF91CF911F910F91FF90EF90089581
:10044000F62E0B8D10E00F5F1F4F0F731127E02E5C
:100450008C8D8E110CC00FB607FCFACFE889F98994
:10046000808185FFF5CFCE010E94D701F1CFEB8DC2
:10047000EC0FFD2FF11DE35AFF4FF0829FB7F89468
:100480000B8FEA89FB8980818062CFCFCF93DF9386
:10049000EC01888D8823B9F0AA89BB89E889F9899C
:1004A0008C9185FD03C0808186FD0DC00FB607FCD1
:1004B000F7CF8C9185FFF2CF808185FFEDCFCE0104
:1004C0000E94D701E9CFDF91CF91089590E0FC0120
:1004D000E255FF4F2491FC01E656FF4F3491FC0199
:1004E000EA57FF4FE491EE23C1F1222339F0233084
:1004F000E9F090F4213001F1223011F1F0E0EE0F3B
:10050000FF1FE458FF4FA591B491EC91E32381E0E4
:1005100090E029F580E008952730A9F02830C9F04F
:10052000243061F7809180008F7D03C0809180002E
:100530008F7780938000E2CF84B58F7784BDDECF44
:1005400084B58F7DFBCF8091B0008F778093B00012
:10055000D5CF8091B0008F7DF9CF80E090E00895F5
:100560000F931F93CF93DF93EC0180915F030E9461
:100570008C0063E086E090E00E94D50060915D030E
:10058000CE010E94D500C0915C03D0E010E000E0F5
:100590008091640390E02197E0F00E94CA0080916E
:1005A00060030E948C008091640390E00E94CA0066
:1005B000809161030E9466020C2E02C0880F991F71
:1005C0000A94E2F7082B192B809160030E94AA007D
:1005D000DFCF0E94CA0080915F030E94AA00809131
:1005E000640390E00E94CA00C801DF91CF911F917F
:1005F0000F910895CF93DF9390E0FC01E656FF4FF3
:1006000024918A579F4FFC0184918823D1F090E078
:10061000880F991FFC01EE58FF4FA591B491FC0182
:10062000E859FF4FC591D49161110EC09FB7F8945E
:100630008C91E22FE0958E238C932881E223E8832E
:100640009FBFDF91CF9108958FB7F894EC91E22B83
:10065000EC938FBFF6CF2FB7F8946091A9027091F9
:10066000AA028091AB029091AC022FBF0895CF9265
:10067000DF92EF92FF92CF930E942B036B017C01DC
:10068000C0916703CC23D1F080915F030E948C005E
:10069000809161030E946602C82F81110BC00E94E5
:1006A0002B036C197D098E099F096536710581053B
:1006B000910570F380915F030E94AA008C2FCF9167
:1006C000FF90EF90DF90CF900895009769F0FC01C4
:1006D00001900020E9F73197AF01481B590BBC018D
:1006E0008FEB92E00C94590190E080E008958F9296
:1006F0009F92AF92BF920F931F93CF93DF93CDB78B
:10070000DEB7A1970FB6F894DEBF0FBECDBF19A21A
:10071000423008F44AE08E010F5D1F4F842E912C69
:10072000B12CA12CA50194010E94BB08E62FB901B0
:10073000CA01EA30D4F4E05DD801EE938D01232B99
:10074000242B252B79F7CD010E946503A1960FB6C6
:10075000F894DEBF0FBECDBFDF91CF911F910F91F7
:10076000BF90AF909F908F900895E95CE5CF42E0F5
:1007700050E067E171E08FEB92E00C945901CF9368
:10078000DF930E946503EC010E94B7038C0F9D1F4D
:10079000DF91CF9108958AE191E00E94BF0386E244
:1007A00091E00E94BF038CE591E00E94BF038CE7BB
:1007B00091E00E94BF038CE891E00E94BF0384EAAD
:1007C00091E00E94BF0385EB91E00E94BF0382EDA0
:1007D00091E00C94BF03CF93DF93682F70E090E01B
:1007E00080E04AE00E947703EC010E94B7038C0F7F
:1007F0009D1FDF91CF91089560EE71E08DEA92E048
:100800000E94870860EE71E090E080E00E94870817
:100810000E9469088093010160EE71E090E080E041
:100820000E9487080E946908909304018093030145
:1008300060EE71E090E080E00E9487080E94690805
:100840008093020160EE71E090E080E00E948708F2
:100850000E94690880930001809103019091040136
:10086000892B21F482EE91E00C94BF038091010169
:100870008234D9F138F48E3289F08833B1F180EFC7
:1008800091E0F2CF8C3411F08635C9F7809366037E
:1008900080916503883099F18AE007C080936603F0
:1008A000809165038830F9F086E080935D03909134
:1008B0000201983091F5809163038F3F79F0909316
:1008C000650390935C0390916603923421F1C8F420
:1008D0009E32E9F09833F9F00E94AA00809100015D
:1008E00080936403089587E0E0CF8093660380914E
:1008F0006503883011F088E0D8CF89E0D6CF8BE04F
:10090000D4CF9C3411F0963539F79BE001C097E0C5
:1009100090935D03E1CF99E0FBCF8EEF91E0A4CF00
:100920001F920F920FB60F9211242F933F934F9364
:100930005F936F937F938F939F93AF93BF93EF9347
:10094000FF938FEB92E00E94D701FF91EF91BF914F
:10095000AF919F918F917F916F915F914F913F9157
:100960002F910F900FBE0F901F9018951F920F920E
:100970000FB60F9211242F938F939F93EF93FF93B2
:10098000E091CF02F091D0028081E091D502F09108
:10099000D60282FD1BC090818091D8028F5F8F7339
:1009A0002091D902821741F0E091D802F0E0E154A1
:1009B000FD4F958F8093D802FF91EF919F918F917A
:1009C0002F910F900FBE0F901F9018958081F4CF3C
:1009D0001F920F920FB60F9211242F933F938F9374
:1009E0009F93AF93BF938091A9029091AA02A09187
:1009F000AB02B091AC023091A80223E0230F2D3757
:100A000058F50196A11DB11D2093A8028093A9025B
:100A10009093AA02A093AB02B093AC028091A4027F
:100A20009091A502A091A602B091A7020196A11DE6
:100A3000B11D8093A4029093A502A093A602B09347
:100A4000A702BF91AF919F918F913F912F910F90EE
:100A50000FBE0F901F90189526E8230F0296A11D38
:100A6000B11DD2CF1092C2021092C10288EE93E063
:100A7000A0E0B0E08093C3029093C402A093C502AB
:100A8000B093C60289E091E09093C0028093BF02C8
:100A900085EC90E09093CC028093CB0284EC90E0C4
:100AA0009093CE028093CD0280EC90E09093D002A0
:100AB0008093CF0281EC90E09093D2028093D10298
:100AC00082EC90E09093D4028093D30286EC90E085
:100AD0009093D6028093D5021092D8021092D90238
:100AE0001092DA021092DB0299E090935E038AE0A2
:100AF00080935F0387E0809360038CE080936103C1
:100B00008BE08093620388E08093630326E920935F
:100B1000640380935C038093650382E4809366039F
:100B200090935D0381E08093670361E089E00E9418
:100B3000FA0280915E038F3F11F00E94AA0061E0EB
:100B400080915F030E94FA0261E0809160030E943D
:100B5000FA0260E0809161030E94FA0261E08091F4
:100B600062030E94FA02809163038F3F19F061E0F3
:100B70000E94FA02809162030E94AA0080916003A1
:100B80000E94AA0080915F030E94AA0080916303E3
:100B90000C94AA00CF93DF9300D000D01F92CDB762
:100BA000DEB7789484B5826084BD84B5816084BDED
:100BB00085B5826085BD85B5816085BD80916E00FB
:100BC000816080936E00109281008091810082602C
:100BD0008093810080918100816080938100809169
:100BE00080008160809380008091B1008460809358
:100BF000B1008091B00081608093B00080917A0054
:100C0000846080937A0080917A00826080937A0079
:100C100080917A00816080937A0080917A00806868
:100C200080937A001092C100E091CF02F091D0023F
:100C300082E08083E091CB02F091CC021082E091BF
:100C4000CD02F091CE0281E080831092D702E09134
:100C5000D302F091D40286E08083E091D102F0913A
:100C6000D202808180618083E091D102F091D20232
:100C7000808188608083E091D102F091D2028081EE
:100C800080688083E091D102F091D20280818F7DD3
:100C9000808361E08DE00E94FA0287E193E0019792
:100CA000F1F78BE092E00E946503CE0101966C01A2
:100CB0009FE8292E92E0392E8FEB92E00E94B70137
:100CC000892B61F08FEB92E00E949501E091BE02CA
:100CD0008D3079F4E11113C00E94CB03E0E0F0E025
:100CE000EF2B51F30E94C301882331F30E940000CF
:100CF000E3CF8A3009F0CEC1EE2309F478C08091A9
:100D0000AD02803709F443C09CF5853609F43FC035
:100D10008836B9F18F3389F583E192E00E94BF03F1
:100D200084E292E00E946503809101010E94EB033E
:100D30008BE292E00E9465036091030170910401CF
:100D400090E080E04AE00E9477030E94B70382E3CC
:100D500092E00E946503809102010E94EB0388E308
:100D600092E00E946503809100010E94EB033FC066
:100D70008337B9F14CF4823751F080E492E00E945D
:100D8000BF030E94CB0333C087578230B0F7E930EE
:100D900010F00E94FC0380915E038F3F91F08091E0
:100DA0005F030E94AA008091640390E00E94CA0041
:100DB00080915E030E948C008091640390E00E9409
:100DC000CA008091AD02803709F4E1C09CF48536F9
:100DD00009F43BC180915E038F3F49F00E94AA0055
:100DE00006C00E94FC0388E191E00E946503109216
:100DF000BE0274CF823741F1873761F70E942B031F
:100E00002B013C010E9413016CE08FEB92E00E94E9
:100E1000F9011092BE0210E000E00E942B03641959
:100E2000750986099709653F71408105910508F4A8
:100E300042C080E592E00E94BF030E94360185E631
:100E400092E00E946503C6CF1092BE0210E000E05F
:100E500080910301909104010817190708F0BACF97
:100E6000C8010E94B002E091BE0291E09E0F9093F3
:100E7000BE02F0E0E355FD4F8083E92FF0E0E3553B
:100E8000FD4F10829031A1F42D9AF12C8091BE0279
:100E9000F81658F4EF2DF0E0E355FD4F60818FEB2D
:100EA00092E00E94F901F394F1CF1092BE022D98C6
:100EB0000F5F1F4FCDCF2D9A8FEB92E00E94B701AD
:100EC000181619060CF059C08FEB92E00E9495019C
:100ED000E091BE02FF24F394FE0EF092BE02F0E019
:100EE000E355FD4F8083EF2DF0E0E355FD4F108279
:100EF0000E942B032B013C01F0E1FF12DDCF8DEAB4
:100F0000E82E82E0F82EC8018D5A92404C0154011F
:100F1000AE0CBF1CF70121917F012D8380915F03EF
:100F20000E948C0063E085E090E00E94D500609113
:100F30005D03C5010E94D50060915C03ED818E2F99
:100F4000EE0F990B0E94D50080915F030E94AA00CA
:100F50008091640390E00E94CA000E943703FDEB79
:100F6000EF16F2E0FF0699F6005F1F4F83E692E06E
:100F70000E9465031092BE029FCF2D9880910301BD
:100F8000909104010817190708F447CF56CF2D9AFE
:100F90008AE792E00E94BF0310E000E0F12C80910C
:100FA0000301909104010817190708F048C08091C7
:100FB0000201883089F0803129F1C6010E94650361
:100FC000F39498E1F91205C088E191E00E9465036D
:100FD000F12C0F5F1F4FE3CFC8010E94B002282FF2
:100FE000082E000C330B3F938F933F922F92DF928A
:100FF000CF920E94E3080F900F900F900F900F90E8
:101000000F90DBCFC8010E94B002082E000C990B94
:101010009C0133273F932F93892F880F880B8F9341
:101020009F938BE892E09F938F93DF92CF920E94E1
:10103000E3080FB6F894DEBF0FBECDBFBECF88E188
:1010400091E00E9465032D98C5CE0E941301809106
:101050005D038250990B02E110E002C0000F111FE6
:101060008A95E2F780915F030E948C0060915D0396
:101070006D5FC8010E94D5008091640390E00E94DA
:10108000CA000E9437030E94360185E992E00E945F
:10109000BF03A0CE8F3739F4EE2309F41FCEE15001
:1010A000E093BE021BCEE03170F491E09E0F90936E
:1010B000BE02F0E0E355FD4F8083E92FF0E0E355F9
:1010C000FD4F10820BCE67E08FEB92E00E94F9019A
:1010D00005CEFC0188279927E89421912032E9F375
:1010E000293010F02E30C8F32B3241F02D3239F474
:1010F000689404C00E94B308820F911D219120536F
:101100002A30C0F31EF4909581959F4F089548E6CC
:1011100053E00E948C080895FA01A191B0810097D4
:1011200019F41097E1F0CD01DC01CD010D90002004
:1011300011F4C00113C0FB012191222319F02015E5
:10114000D9F7F3CFFB012191201519F41E921196C6
:1011500006C02223C1F70D900020A1F7D001FA01AB
:10116000A193B08308957AE0979F902D879F802D5B
:10117000910D11240895A1E21A2EAA1BBB1BFD019B
:101180000DC0AA1FBB1FEE1FFF1FA217B307E40766
:10119000F50720F0A21BB30BE40BF50B661F771FBE
:1011A000881F991F1A9469F760957095809590959E
:1011B0009B01AC01BD01CF010895EE0FFF1F05900B
:1011C000F491E02D0994AEE0B0E0E9EEF8E00C9483
:1011D000920B0D891E8986E08C831A8309838FEF19
:1011E0009FE79E838D83AE01475E5F4F6F89788D49
:1011F000CE0101960E9406092F813885020F131F28
:10120000F80110822E96E4E00C94AE0BABE0B0E057
:10121000ECE0F9E00C94840B7C013B018A01FC01B9
:1012200017821682838181FFC8C1CE0101965C01BD
:10123000F7019381F30193FD859193FF81913F0124
:10124000882309F453C1853239F493FD859193FFC6
:1012500081913F01853229F4B70190E00E94F60A9E
:10126000E7CF912C212C312CFFE1F31538F08B3294
:1012700011F190F4803209F1833229F137FC3CC03E
:1012800020ED280F2A3050F536FE20C08AE0989EC7
:10129000200D1124922E06C08D3291F0803371F70B
:1012A000689430F8F30193FD859193FF81913F019C
:1012B0008111DACF21C0689431F8689432F8F2CF06
:1012C000689433F8EFCF689434F8ECCFEAE02E9EC0
:1012D000200D1124222E689435F8E4CF8E3229F4A3
:1012E00036FC04C1689436F8DDCF8C3619F4689466
:1012F00037F8D8CF8836B1F2982F9F7D9554933028
:10130000E0F08336A1F18337C1F1833509F063C082
:101310002801F2E04F0E511CF801C080D180692DE8
:1013200070E036FC02C06FEF7FEFC6010E94E00A5A
:101330004C01689437F882010AC00C5F1F4FFFE32D
:10134000F98388248394912C6501E89437F833FE5F
:101350002DC0522C8114910471F5552009F468CFE9
:10136000B70180E290E00E94F60A5A94F6CFF801A5
:10137000808189830E5F1F4FE4CF2801F2E04F0E7A
:10138000511CF801C080D180692D70E036FC02C08C
:101390006FEF7FEFC6010E94EB0A4C018201D5CFAF
:1013A000B70180E290E00E94F60A2A9428141904FA
:1013B00009F0B0F7CECFF60137FC859137FE819169
:1013C0006F01B70190E00E94F60A51105A94F1E0C3
:1013D0008F1A9108BFCF843619F0893609F077C08B
:1013E000F80137FE6BC060817181828193810C5F4F
:1013F0001F4FF32DFF763F2E97FF09C090958095E4
:10140000709561957F4F8F4F9F4F689437F82AE012
:1014100030E0A5010E94260BC82ECA188C2C432C44
:1014200036FE0CC0E89440F8C91440F434FE05C000
:1014300032FC03C0F32DFE7E4F2E892C44FE95C056
:10144000FE01EC0DF11D8081803309F087C0242D51
:10145000297E422E842D8870582E43FC95C040FE74
:101460008FC09C2C821418F42C0C922C981844FEDB
:1014700091C0B70180E390E00E94F60A42FE09C0E5
:1014800088E790E041FE02C088E590E0B7010E9445
:10149000F60AC91408F48AC0CA94D12C9FEFC91A5D
:1014A000D90ACA0CDB1CF60182916F01B70190E0EA
:1014B0000E94F60AAC14BD04B1F74FCF6081718170
:1014C000072E000C880B990B0E5F1F4F92CFD32C69
:1014D000E894D4F82AE030E0853739F1232D297FCC
:1014E000D22E8F3601F148F48835A9F0F7018681B4
:1014F00097812B96E2E10C94A00B803749F0883756
:10150000A9F7D4FE02C06894D2F820E130E00DC003
:101510006894D4F8F6CF34FE03C0822F8660D82EAC
:1015200020E132E002C028E030E0F801D7FE0FC031
:1015300060817181828193810C5F1F4FA5010E94A0
:10154000260BC82ECA183D2CE89437F867CF608167
:10155000718190E080E00E5F1F4FF0CF42FC02C02F
:10156000839478CF8394839475CF842D867809F4FF
:1015700071CFF6CFB70180E290E00E94F60A839423
:101580008214C0F3512C73CF522C5818821408F4D3
:101590006ECFF8CF842D867809F47BCF8BE241FEA5
:1015A00080E247FC8DE2B70190E071CFB70180E3A4
:1015B00090E00E94F60A9A946CCF8FEF9FEF99CF3C
:1015C000FC010590615070400110D8F7809590950E
:1015D0008E0F9F1F0895FC01615070400190011013
:1015E000D8F7809590958E0F9F1F08950F931F93A6
:1015F000CF93DF93182F092FEB018B8181FD09C059
:101600001FEF0FEF812F902FDF91CF911F910F913F
:10161000089582FF14C02E813F818C819D812817FF
:1016200039073CF4E881F981CF01019699838883D9
:1016300010838E819F8101969F838E83E3CFE885FF
:10164000F985812F0995892BA1F3DACFFA01AA2711
:10165000283051F1203181F1E8946F936E7F6E5FF5
:101660007F4F8F4F9F4FAF4FB1E03ED0B4E03CD0A3
:10167000670F781F891F9A1FA11D680F791F8A1F86
:10168000911DA11D6A0F711D811D911DA11D20D0ED
:1016900009F468943F912AE0269F11243019305DA7
:1016A0003193DEF6CF010895462F4770405D419398
:1016B000B3E00FD0C9F7F6CF462F4F70405D4A33E5
:1016C00018F0495D31FD4052419302D0A9F7EACFAD
:1016D000B4E0A6959795879577956795BA95C9F7DC
:1016E00000976105710508959B01AC010A2E0694CF
:1016F0005795479537952795BA95C9F7620F731F88
:10170000841F951FA01D08952F923F924F925F92C4
:101710006F927F928F929F92AF92BF92CF92DF9201
:10172000EF92FF920F931F93CF93DF93CDB7DEB766
:10173000CA1BDB0B0FB6F894DEBF0FBECDBF0994FA
:101740002A88398848885F846E847D848C849B8451
:10175000AA84B984C884DF80EE80FD800C811B815F
:10176000AA81B981CE0FD11D0FB6F894DEBF0FBE8E
:0A177000CDBFED010895F894FFCFFE
:10177A00964208000200000000F90159018601465C
:10178A0002B7019501A9010D0A002D2D2D206565CD
:10179A0070202D2D2D00732C3C636869703E2C3C03
:1017AA0073697A653E2C3C6F72673E2C3C70696E99
:1017BA005F64656C61793E202D2053657420636FE8
:1017CA006E66696775726174696F6E003F202D20BD
:1017DA005072696E742063757272656E7420636FDD
:1017EA006E66696775726174696F6E0072202D206A
:1017FA005265616420656570726F6D0077202D20D7
:10180A00496E697469617465207772697465206DBF
:10181A006F64650065202D204572617365206565DA
:10182A0070726F6D0070202D204865782070726983
:10183A006E7420656570726F6D20636F6E74656E6D
:10184A00740068202D20546869732068656C7000E4
:10185A002C0007696E76616C69642073697A650089
:10186A0007696E76616C696420636869700007694C
:10187A006E76616C6964206F72670076322E302E44
:10188A00370A002D2D2D2073657474696E677320D5
:10189A002D2D2D00636869703A200073697A653AC4
:1018AA0020006F72673A200064656C61793A200003
:1018BA00696E76616C696420636F6D6D616E640038
:1018CA00076461746120726561642074696D656F73
:1018DA007574000C000D0A2D2D2D20777269746520
:1018EA0020646F6E65202D2D2D002D2D2D2048652D
:1018FA00782064756D70202D2D2D002530325825E5
:10190A00303258200007656570726F6D206572610C
:04191A00736564008D
:00000001FF
