:100000000C9462000C948A000C948A000C948A0070
:100010000C948A000C948A000C948A000C948A0038
:100020000C948A000C948A000C948A000C948A0028
:100030000C948A000C948A000C948A000C948A0018
:100040000C9471050C948A000C943F050C941905CE
:100050000C948A000C948A000C948A000C948A00F8
:100060000C948A000C948A000000000025002800EF
:100070002B0000000000240027002A0000000000E0
:1000800023002600290004040404040404040202DA
:100090000202020203030303030301020408102007
:1000A0004080010204081020010204081020000012
:1000B0000008000201000003040700000000000027
:1000C0000000BB0511241FBECFEFD8E0DEBFCDBFBF
:1000D00023E0A4EBB2E001C01D92AA37B207E1F71A
:1000E00012E0A0E0B1E0E4E2F8E102C005900D9278
:1000F000A43BB107D9F710E0C2E6D0E004C02197D5
:10010000FE010E943209C136D107C9F70E94530689
:100110000C94100C0C9400008234B9F028F48E3248
:1001200041F0883391F008958C34C9F08635B9F0E8
:1001300008958093760380917503883021F086E0DE
:1001400080936D03089587E0FBCF809376038091C1
:100150007503883011F088E0F3CF89E0F1CF809308
:10016000760380917503883011F08AE0E9CF8BE047
:10017000E7CF883058F49BB121E030E001C0220F76
:100180008A95EAF7892F822B8BB908958E3070F407
:1001900025B18850990B41E050E0BA0102C0660FCA
:1001A000771F8A95E2F7CB01822B85B908958830B5
:1001B00070F44BB121E030E0B90102C0660F771F47
:1001C0008A95E2F7CB01809584238BB908958E3010
:1001D00068F445B1682F6850770B81E090E001C06A
:1001E000880F6A95EAF78095842385B90895AF92C0
:1001F000BF92CF92DF92EF92FF920F931F93CF9314
:10020000DF936C017B018B01040F151FEB015E0175
:10021000AE18BF08C017D10759F06991D601ED910A
:10022000FC910190F081E02DC6010995892B79F7A9
:10023000C501DF91CF911F910F91FF90EF90DF905B
:10024000CF90BF90AF900895FC01538D448D252F22
:1002500030E0842F90E0821B930B541710F0CF9660
:10026000089501970895FC01918D828D981761F092
:10027000A28DAE0FBF2FB11D5D968C91928D9F5FA9
:100280009F73928F90E008958FEF9FEF0895FC0188
:10029000918D828D981731F0828DE80FF11D858D3B
:1002A00090E008958FEF9FEF0895FC01918D228DCE
:1002B000892F90E0805C9F4F821B91098F73992753
:1002C00008958FEC92E00E94550121E0892B09F4FA
:1002D00020E0822F089580E090E0892B29F00E9491
:1002E000610181110C9400000895FC01A48DA80FF8
:1002F000B92FB11DA35ABF4F2C91848D90E0019668
:100300008F739927848FA689B7892C93A089B18987
:100310008C91837080648C93938D848D981306C028
:100320000288F389E02D80818F7D80830895EF928C
:10033000FF920F931F93CF93DF93EC0181E0888F9F
:100340009B8D8C8D98131AC0E889F989808185FF6F
:1003500015C09FB7F894EE89FF896083E889F98911
:1003600080818370806480839FBF81E090E0DF9113
:10037000CF911F910F91FF90EF900895F62E0B8D66
:1003800010E00F5F1F4F0F731127E02E8C8D8E1121
:100390000CC00FB607FCFACFE889F989808185FF88
:1003A000F5CFCE010E947501F1CFEB8DEC0FFD2F43
:1003B000F11DE35AFF4FF0829FB7F8940B8FEA8943
:1003C000FB8980818062CFCFCF93DF93EC01888D52
:1003D0008823B9F0AA89BB89E889F9898C9185FDC0
:1003E00003C0808186FD0DC00FB607FCF7CF8C914E
:1003F00085FFF2CF808185FFEDCFCE010E94750190
:10040000E9CFDF91CF91089590E0FC01E255FF4FD5
:100410002491FC01E656FF4F3491FC01EA57FF4F4F
:10042000E491EE23C1F1222339F02330E9F090F476
:10043000213001F1223011F1F0E0EE0FFF1FE458FE
:10044000FF4FA591B491EC91E32381E090E029F571
:1004500080E008952730A9F02830C9F0243061F7F2
:10046000809180008F7D03C0809180008F77809382
:100470008000E2CF84B58F7784BDDECF84B58F7DD9
:10048000FBCF8091B0008F778093B000D5CF809163
:10049000B0008F7DF9CF80E090E00895CF93DF9397
:1004A00090E0FC01E656FF4F24918A579F4FFC01D4
:1004B00084918823D1F090E0880F991FFC01EE58B9
:1004C000FF4FA591B491FC01E859FF4FC591D4911C
:1004D00061110EC09FB7F8948C91E22FE0958E23A6
:1004E0008C932881E223E8839FBFDF91CF91089509
:1004F0008FB7F894EC91E22BEC938FBFF6CF82305C
:10050000910538F0880F991F880F991F059701975B
:10051000F1F70895EF92FF920F931F93CF93DF931C
:100520008C01862F8150990BEC01EE24E394F12C81
:10053000CF3FDC0731F18091720397010C2E02C08E
:10054000220F331F0A94E2F720233123232BB1F02B
:100550000E94B9008091740390E00E947F02809114
:1005600070030E94B9008091740390E00E947F02A2
:10057000809170030E94D7002197DACF0E94D700A4
:10058000E9CFDF91CF911F910F91FF90EF900895E8
:100590000F931F93CF93DF93EC0180916F030E9421
:1005A000B90063E086E090E00E948A0260916D03EA
:1005B000CE010E948A02C0916C03D0E010E000E0FE
:1005C0008091740390E02197E0F00E947F02809177
:1005D00070030E94B9008091740390E00E947F0232
:1005E000809171030E9404020C2E02C0880F991F93
:1005F0000A94E2F7082B192B809170030E94D70010
:10060000DFCF0E947F0280916F030E94D70080910C
:10061000740390E00E947F02C801DF91CF911F9187
:100620000F9108950F931F93CF93DF93CCE6D3E000
:1006300089818250990B03E110E002C0000F111F65
:100640008A95E2F78B810E94B90069816D5FC801CC
:100650000E948A028B810E94D700888590E0DF91FA
:10066000CF911F910F910C947F020F931F93CF9303
:10067000DF93CCE6D3E089818250990B00E110E052
:1006800002C0000F111F8A95E2F78B810E94B9000A
:1006900069816D5FC8010E948A028B810E94D70028
:1006A000888590E0DF91CF911F910F910C947F028C
:1006B0003FB7F8948091B9029091BA02A091BB0221
:1006C000B091BC0226B5A89B05C02F3F19F001963A
:1006D000A11DB11D3FBFBA2FA92F982F8827BC019C
:1006E000CD01620F711D811D911D42E0660F771FC4
:1006F000881F991F4A95D1F708958F929F92AF92C4
:10070000BF92CF92DF92EF92FF920E9458034B016B
:100710005C0184E1C82ED12CE12CF12C0E945803FD
:10072000681979098A099B09683E7340810591051A
:10073000A8F321E0C21AD108E108F10888EE880E7A
:1007400083E0981EA11CB11CC114D104E104F10482
:1007500029F7FF90EF90DF90CF90BF90AF909F90E0
:100760008F9008952FB7F8946091B5027091B602FA
:100770008091B7029091B8022FBF0895CF92DF9277
:10078000EF92FF92CF930E94B2036B017C01C09164
:100790007703CC23D1F080916F030E94B900809140
:1007A00071030E940402C82F81110BC00E94B20382
:1007B0006C197D098E099F096536710581059105C2
:1007C00070F380916F030E94D7008C2FCF91FF9020
:1007D000EF90DF90CF900895009769F0FC010190B1
:1007E0000020E9F73197AF01481B590BBC018FEC92
:1007F00092E00C94F70090E080E008958F929F9231
:10080000AF92BF920F931F93CF93DF93CDB7DEB715
:10081000A1970FB6F894DEBF0FBECDBF19A242302C
:1008200008F44AE08E010F5D1F4F842E912CB12CED
:10083000A12CA50194010E941009E62FB901CA015B
:10084000EA30D4F4E05DD801EE938D01232B242B04
:10085000252B79F7CD010E94EC03A1960FB6F894F1
:10086000DEBF0FBECDBFDF91CF911F910F91BF9023
:10087000AF909F908F900895E95CE5CF0C94EC03C6
:1008800042E050E067E171E08FEC92E00C94F700F9
:10089000CF93DF930E94EC03EC010E9440048C0F85
:1008A0009D1FDF91CF9108958AE191E00E94480455
:1008B00086E291E00E9448048CE591E00E944804A1
:1008C0008CE791E00E9448048CE891E00E94480483
:1008D00084EA91E00E94480485EB91E00E9448047C
:1008E00082ED91E00E94480480EE91E00C9448046F
:1008F000CF93DF93682F70E090E080E04AE00E94A1
:10090000FE03EC010E9440048C0F9D1FDF91CF91EC
:10091000089562EF71E08DEB92E00E94DC0862EFD7
:1009200071E090E080E00E94DC080E94BE088093A5
:10093000010162EF71E090E080E00E94DC080E941B
:10094000BE08909304018093030162EF71E090E090
:1009500080E00E94DC080E94BE088093020162EFE2
:1009600071E090E080E00E94DC080E94BE08809365
:1009700000018091030190910401892B21F484EFFF
:1009800091E00C94480480910101823431F138F4F3
:100990008E3259F08833E9F082E092E0F2CF8C3465
:1009A000F1F08635C9F786E515C08093760380910E
:1009B0007503883061F086E080936D0380910201B9
:1009C000883079F0803121F180E192E0DACF87E060
:1009D000F3CF88E30E948C00F1CF82E4FBCF8CE45C
:1009E000F9CF909173039F3F71F0809375038093CB
:1009F0006C03809176030E948C00809173038F3F7B
:100A000011F00E94D7008091000180937403089533
:100A1000909173039F3FB9F38093750380936C03A8
:100A2000809176030E948C00809173030E94B9002C
:100A3000EACF1F920F920FB60F9211242F933F937C
:100A40004F935F936F937F938F939F93AF93BF93D6
:100A5000EF93FF938FEC92E00E947501FF91EF916D
:100A6000BF91AF919F918F917F916F915F914F91C6
:100A70003F912F910F900FBE0F901F9018951F92CE
:100A80000F920FB60F9211242F938F939F93EF9392
:100A9000FF93E091DF02F091E0028081E091E502B6
:100AA000F091E60282FD1BC090818091E8028F5F89
:100AB0008F732091E902821741F0E091E802F0E0A3
:100AC000E153FD4F958F8093E802FF91EF919F9145
:100AD0008F912F910F900FBE0F901F9018958081CE
:100AE000F4CF1F920F920FB60F9211242F933F93C2
:100AF0008F939F93AF93BF938091B5029091B6026D
:100B0000A091B702B091B8023091B40223E0230F54
:100B10002D3758F50196A11DB11D2093B402809385
:100B2000B5029093B602A093B702B093B802809139
:100B3000B9029091BA02A091BB02B091BC02019699
:100B4000A11DB11D8093B9029093BA02A093BB027C
:100B5000B093BC02BF91AF919F918F913F912F9124
:100B60000F900FBE0F901F90189526E8230F029646
:100B7000A11DB11DD2CF1092D2021092D10288EEE7
:100B800093E0A0E0B0E08093D3029093D402A093CE
:100B9000D502B093D60289E091E09093D002809381
:100BA000CF0285EC90E09093DC028093DB0284EC32
:100BB00090E09093DE028093DD0280EC90E09093D1
:100BC000E0028093DF0281EC90E09093E202809358
:100BD000E10282EC90E09093E4028093E30286ECE1
:100BE00090E09093E6028093E5021092E802109262
:100BF000E9021092EA021092EB0299E090936E03E0
:100C00008AE080936F0387E0809370038CE0809389
:100C100071038BE08093720388E08093730326E96D
:100C20002093740380936C038093750382E4809314
:100C3000760390936D0381E08093770361E089E010
:100C40000E944E0280916E038F3F11F00E94D700E8
:100C500061E080916F030E944E0261E08091700319
:100C60000E944E0260E0809171030E944E0261E09A
:100C7000809172030E944E02809173038F3F19F09E
:100C800061E00E944E02809172030E94D700809121
:100C900070030E94D70080916F030E94D70080915B
:100CA00073030C94D700CF93DF9300D000D0CDB75F
:100CB000DEB7789484B5826084BD84B5816084BDDC
:100CC00085B5826085BD85B5816085BD80916E00EA
:100CD000816080936E00109281008091810082601B
:100CE0008093810080918100816080938100809158
:100CF00080008160809380008091B1008460809347
:100D0000B1008091B00081608093B00080917A0042
:100D1000846080937A0080917A00826080937A0068
:100D200080917A00816080937A0080917A00806857
:100D300080937A001092C100E091DF02F091E0020E
:100D400082E08083E091DB02F091DC021082E0918E
:100D5000DD02F091DE0281E080831092E702E091F3
:100D6000E302F091E40286E08083E091E102F091F9
:100D7000E202808180618083E091E102F091E202F1
:100D8000808188608083E091E102F091E2028081BD
:100D900080688083E091E102F091E20280818F7DA2
:100DA000808361E08DE00E944E028DE192E00E941E
:100DB000EC039EE9292E92E0392ECE0101966C01BA
:100DC0008FEC92E00E945501892B09F46AC08FECE8
:100DD00092E00E943301E091CE028D3029F4E111BE
:100DE00009C00E9454045BC08A3009F0A8C1EE23F8
:100DF00009F455C08091BD02823781F0E4F5853653
:100E000069F044F48F3309F459C083E592E00E94FD
:100E10004804E7CF883629F38037B9F7E93010F076
:100E20000E94890480916E038F3F91F080916F033F
:100E30000E94D7008091740390E00E947F0280910D
:100E40006E030E94B9008091740390E00E947F02BB
:100E50000E947D038091BD02803709F415C10CF01A
:100E600059C0853609F446C180916E038F3FB9F0B1
:100E70000E94D70014C0863771F04CF4833729F6EE
:100E80000E94890488E191E00E94EC0308C0893740
:100E90000CF0BBCFC3CF8DE192E00E943E041092D4
:100EA000CE0280E090E0892B09F48ACF0E94610194
:100EB000882309F485CF0E94000082CF86E292E069
:100EC0000E94480487E392E00E943E048091010161
:100ED0000E9478048EE392E00E943E046091030138
:100EE0007091040190E080E04AE00E94FE030E94BD
:100EF000400485E492E00E943E04809102010E9439
:100F000078048BE492E00E943E04809100010E94EC
:100F10007804C5CF823741F1873709F0A5CF0E9409
:100F2000B2032B013C010E9412036CE08FEC92E0B3
:100F30000E9497011092CE0210E000E00E94B203DE
:100F40006419750986099709653F71408105910506
:100F500078F183E692E00E9448040E94350388E716
:100F600092E00E943E0480CF0E947D031092CE0248
:100F700010E000E080910301909104010817190727
:100F800008F072CFC8010E94C802F82E80910201B9
:100F9000883041F46F2D8FEC92E00E9497010F5F33
:100FA0001F4FE8CF692F8FEC92E00E949701F2CF9C
:100FB0002D9A8FEC92E00E945501181619060CF03C
:100FC00059C08FEC92E00E943301E091CE02FF24E1
:100FD000F394FE0EF092CE02F0E0E354FD4F8083D6
:100FE000EF2DF0E0E354FD4F10820E94B2032B017D
:100FF0003C01F0E1FF12DDCF8DEBE82E82E0F82E10
:10100000C8018D5B92404C015401AE0CBF1CF7012E
:1010100021917F012C8380916F030E94B90063E0CE
:1010200085E090E00E948A0260916D03C5010E94F4
:101030008A0260916C03EC818E2FEE0F990B0E9457
:101040008A0280916F030E94D7008091740390E020
:101050000E947F020E94BE03FDECEF16F2E0FF0645
:1010600099F6005F1F4F86E792E00E943E041092BF
:10107000CE029FCF2D988091030190910401081713
:10108000190708F45BCF69CF2D9A8DE892E00E9492
:10109000480410E000E0F12C8091030190910401DC
:1010A0000817190708F5C8010E94C80299279F93DD
:1010B0008F933F922F92DF92CF920E943809C60100
:1010C0000E943E04F3940F900F900F900F900F909A
:1010D0000F9028E1F21205C088E191E00E94EC0334
:1010E000F12C0F5F1F4FD8CF88E191E00E94EC03F5
:1010F0002D98BACE0E94120380916D038250990BF5
:1011000002E110E002C0000F111F8A95E2F7809102
:101110006F030E94B90060916D036D5FC8010E946A
:101120008A028091740390E00E947F020E94BE03B5
:101130000E94350384EA92E00E94480495CE8F37DE
:1011400039F4EE2309F4ADCEE150E093CE02A9CEFE
:10115000E03170F491E09E0F9093CE02F0E0E35402
:10116000FD4F8083E92FF0E0E354FD4F108299CECC
:1011700067E08FEC92E00E94970193CEFC018827F4
:101180009927E89421912032E9F3293010F02E308C
:10119000C8F32B3241F02D3239F4689404C00E9418
:1011A0000809820F911D219120532A30C0F31EF4AB
:1011B000909581959F4F089548E753E00E94E1087C
:1011C0000895FA01A191B081009719F41097E1F008
:1011D000CD01DC01CD010D90002011F4C00113C040
:1011E000FB012191222319F02015D9F7F3CFFB0140
:1011F0002191201519F41E92119606C02223C1F7E1
:101200000D900020A1F7D001FA01A193B0830895B9
:101210007AE0979F902D879F802D910D112408953E
:10122000A1E21A2EAA1BBB1BFD010DC0AA1FBB1FEA
:10123000EE1FFF1FA217B307E407F50720F0A21B5C
:10124000B30BE40BF50B661F771F881F991F1A94C9
:1012500069F760957095809590959B01AC01BD01F3
:10126000CF010895EE0FFF1F0590F491E02D099432
:10127000AEE0B0E0EEE3F9E00C94E70B0D891E89D7
:1012800086E08C831A8309838FEF9FE79E838D838B
:10129000AE01475E5F4F6F89788DCE0101960E9447
:1012A0005B092F813885020F131FF80110822E96DB
:1012B000E4E00C94030CABE0B0E0E1E6F9E00C9460
:1012C000D90B7C013B018A01FC01178216828381C4
:1012D00081FFC8C1CE0101965C01F7019381F30142
:1012E00093FD859193FF81913F01882309F453C1B8
:1012F000853239F493FD859193FF81913F018532C9
:1013000029F4B70190E00E944B0BE7CF912C212CE0
:10131000312CFFE1F31538F08B3211F190F480326B
:1013200009F1833229F137FC3CC020ED280F2A3027
:1013300050F536FE20C08AE0989E200D1124922E92
:1013400006C08D3291F0803371F7689430F8F30164
:1013500093FD859193FF81913F018111DACF21C0E7
:10136000689431F8689432F8F2CF689433F8EFCF8C
:10137000689434F8ECCFEAE02E9E200D1124222E42
:10138000689435F8E4CF8E3229F436FC04C16894B1
:1013900036F8DDCF8C3619F4689437F8D8CF883614
:1013A000B1F2982F9F7D95549330E0F08336A1F1F0
:1013B0008337C1F1833509F063C02801F2E04F0E95
:1013C000511CF801C080D180692D70E036FC02C04C
:1013D0006FEF7FEFC6010E94350B4C01689437F820
:1013E00082010AC00C5F1F4FFFE3F98388248394B6
:1013F000912C6501E89437F833FE2DC0522C8114EE
:10140000910471F5552009F468CFB70180E290E0AE
:101410000E944B0B5A94F6CFF801808189830E5FAE
:101420001F4FE4CF2801F2E04F0E511CF801C0809D
:10143000D180692D70E036FC02C06FEF7FEFC601EE
:101440000E94400B4C018201D5CFB70180E290E0B1
:101450000E944B0B2A942814190409F0B0F7CECF40
:10146000F60137FC859137FE81916F01B70190E05D
:101470000E944B0B51105A94F1E08F1A9108BFCF84
:10148000843619F0893609F077C0F80137FE6BC051
:1014900060817181828193810C5F1F4FF32DFF76F4
:1014A0003F2E97FF09C090958095709561957F4F6D
:1014B0008F4F9F4F689437F82AE030E0A5010E94D3
:1014C0007B0BC82ECA188C2C432C36FE0CC0E8941B
:1014D00040F8C91440F434FE05C032FC03C0F32DBB
:1014E000FE7E4F2E892C44FE95C0FE01EC0DF11DB1
:1014F0008081803309F087C0242D297E422E842DDF
:101500008870582E43FC95C040FE8FC09C2C8214DE
:1015100018F42C0C922C981844FE91C0B70180E36B
:1015200090E00E944B0B42FE09C088E790E041FE2C
:1015300002C088E590E0B7010E944B0BC91408F483
:101540008AC0CA94D12C9FEFC91AD90ACA0CDB1CD5
:10155000F60182916F01B70190E00E944B0BAC1431
:10156000BD04B1F74FCF60817181072E000C880B4D
:10157000990B0E5F1F4F92CFD32CE894D4F82AE03A
:1015800030E0853739F1232D297FD22E8F3601F1B6
:1015900048F48835A9F0F701868197812B96E2E11E
:1015A0000C94F50B803749F08837A9F7D4FE02C0B8
:1015B0006894D2F820E130E00DC06894D4F8F6CFFA
:1015C00034FE03C0822F8660D82E20E132E002C0B4
:1015D00028E030E0F801D7FE0FC060817181828180
:1015E00093810C5F1F4FA5010E947B0BC82ECA1868
:1015F0003D2CE89437F867CF6081718190E080E0FE
:101600000E5F1F4FF0CF42FC02C0839478CF8394CB
:10161000839475CF842D867809F471CFF6CFB70106
:1016200080E290E00E944B0B83948214C0F3512C13
:1016300073CF522C5818821408F46ECFF8CF842D33
:10164000867809F47BCF8BE241FE80E247FC8DE295
:10165000B70190E071CFB70180E390E00E944B0B9F
:101660009A946CCF8FEF9FEF99CFFC01059061505A
:1016700070400110D8F7809590958E0F9F1F0895A8
:10168000FC016150704001900110D8F78095909551
:101690008E0F9F1F08950F931F93CF93DF93182FE3
:1016A000092FEB018B8181FD09C01FEF0FEF812F07
:1016B000902FDF91CF911F910F91089582FF14C059
:1016C0002E813F818C819D81281739073CF4E88168
:1016D000F981CF0101969983888310838E819F8140
:1016E00001969F838E83E3CFE885F985812F099545
:1016F000892BA1F3DACFFA01AA27283051F1203142
:1017000081F1E8946F936E7F6E5F7F4F8F4F9F4F95
:10171000AF4FB1E03ED0B4E03CD0670F781F891FD7
:101720009A1FA11D680F791F8A1F911DA11D6A0FA5
:10173000711D811D911DA11D20D009F468943F9158
:101740002AE0269F11243019305D3193DEF6CF0157
:101750000895462F4770405D4193B3E00FD0C9F71D
:10176000F6CF462F4F70405D4A3318F0495D31FD8A
:101770004052419302D0A9F7EACFB4E0A6959795DD
:10178000879577956795BA95C9F7009761057105B3
:1017900008959B01AC010A2E0694579547953795FD
:1017A0002795BA95C9F7620F731F841F951FA01D57
:1017B00008952F923F924F925F926F927F928F92F5
:1017C0009F92AF92BF92CF92DF92EF92FF920F93D0
:1017D0001F93CF93DF93CDB7DEB7CA1BDB0B0FB6DA
:1017E000F894DEBF0FBECDBF09942A883988488897
:1017F0005F846E847D848C849B84AA84B984C8842D
:10180000DF80EE80FD800C811B81AA81B981CE0F23
:10181000D11D0FB6F894DEBF0FBECDBFED01089508
:04182000F894FFCF6A
:101824009642080002000000009701F7002401E43A
:10183400015501330147010D0A002D2D2D20656549
:1018440070202D2D2D00732C3C636869703E2C3C58
:1018540073697A653E2C3C6F72673E2C3C70696EEE
:101864005F64656C61793E202D2053657420636F3D
:101874006E66696775726174696F6E003F202D2012
:101884005072696E742063757272656E7420636F32
:101894006E66696775726174696F6E0072202D20BF
:1018A4005265616420656570726F6D0077202D202C
:1018B400496E697469617465207772697465206D15
:1018C4006F64650065202D20457261736520656530
:1018D40070726F6D0070202D2048657820707269D9
:1018E4006E7420656570726F6D20636F6E74656EC3
:1018F400740068202D20546869732068656C70003A
:1019040076202D205072696E742076657273696F2B
:101914006E002C0007696E76616C69642073697AC5
:10192400650007696E76616C69642063686970009C
:1019340007696E76616C6964206F72670076322E77
:10194400302E31360A002D2D2D2073657474696E86
:101954006773202D2D2D00636869703A2000736928
:101964007A653A20006F72673A200064656C617989
:101974003A2000696E76616C696420636F6D6D61F5
:101984006E64000764617461207265616420746927
:101994006D656F7574000C000D0A2D2D2D20777266
:1019A40069746520646F6E65202D2D2D002D2D2DFD
:1019B400204865782064756D70202D2D2D0025300C
:1019C4003258200007656570726F6D20657261730F
:0419D4006564000046
:00000001FF
