:100000000C9462000C948A000C948A000C948A0070
:100010000C948A000C948A000C948A000C948A0038
:100020000C948A000C948A000C948A000C948A0028
:100030000C948A000C948A000C948A000C948A0018
:100040000C94EE040C948A000C94BC040C9496045A
:100050000C948A000C948A000C948A000C948A00F8
:100060000C948A000C948A000000000025002800EF
:100070002B0000000000240027002A0000000000E0
:1000800023002600290004040404040404040202DA
:100090000202020203030303030301020408102007
:1000A0004080010204081020010204081020000012
:1000B0000008000201000003040700000000000027
:1000C0000000380511241FBECFEFD8E0DEBFCDBF42
:1000D00023E0A2EBB2E001C01D92A837B207E1F71E
:1000E00012E0A0E0B1E0E2E4F7E102C005900D9279
:1000F000A23BB107D9F710E0C2E6D0E004C02197D7
:10010000FE010E94C108C136D107C9F70E94D0057F
:100110000C949F0B0C940000883058F49BB121E0A4
:1001200030E001C0220F8A95EAF7892F822B8BB924
:1001300008958E3070F425B18850990B41E050E05D
:10014000BA0102C0660F771F8A95E2F7CB01822BB6
:1001500085B90895883070F44BB121E030E0B901E1
:1001600002C0660F771F8A95E2F7CB018095842342
:100170008BB908958E3068F445B1682F6850770BBD
:1001800081E090E001C0880F6A95EAF780958423AA
:1001900085B90895AF92BF92CF92DF92EF92FF920E
:1001A0000F931F93CF93DF936C017B018B01040F9F
:1001B000151FEB015E01AE18BF08C017D10759F03B
:1001C0006991D601ED91FC910190F081E02DC6017D
:1001D0000995892B79F7C501DF91CF911F910F9177
:1001E000FF90EF90DF90CF90BF90AF900895FC010B
:1001F000538D448D252F30E0842F90E0821B930B8C
:10020000541710F0CF96089501970895FC01918D31
:10021000828D981761F0A28DAE0FBF2FB11D5D9634
:100220008C91928D9F5F9F73928F90E008958FEFD6
:100230009FEF0895FC01918D828D981731F0828D8A
:10024000E80FF11D858D90E008958FEF9FEF0895E1
:10025000FC01918D228D892F90E0805C9F4F821B45
:1002600091098F73992708958DEC92E00E942801DF
:1002700021E0892B09F420E0822F089580E090E0AE
:10028000892B29F00E94340181110C9400000895FB
:10029000FC01A48DA80FB92FB11DA35ABF4F2C91FB
:1002A000848D90E001968F739927848FA689B789F2
:1002B0002C93A089B1898C91837080648C93938DE9
:1002C000848D981306C00288F389E02D80818F7D8C
:1002D00080830895EF92FF920F931F93CF93DF9344
:1002E000EC0181E0888F9B8D8C8D98131AC0E88972
:1002F000F989808185FF15C09FB7F894EE89FF8941
:100300006083E889F98980818370806480839FBFDE
:1003100081E090E0DF91CF911F910F91FF90EF90DE
:100320000895F62E0B8D10E00F5F1F4F0F731127EE
:10033000E02E8C8D8E110CC00FB607FCFACFE88929
:10034000F989808185FFF5CFCE010E944801F1CF68
:10035000EB8DEC0FFD2FF11DE35AFF4FF0829FB79D
:10036000F8940B8FEA89FB8980818062CFCFCF938D
:10037000DF93EC01888D8823B9F0AA89BB89E889CD
:10038000F9898C9185FD03C0808186FD0DC00FB673
:1003900007FCF7CF8C9185FFF2CF808185FFEDCFF1
:1003A000CE010E944801E9CFDF91CF91089590E0FE
:1003B000FC01E255FF4F2491FC01E656FF4F3491BA
:1003C000FC01EA57FF4FE491EE23C1F1222339F0FB
:1003D0002330E9F090F4213001F1223011F1F0E006
:1003E000EE0FFF1FE458FF4FA591B491EC91E3236A
:1003F00081E090E029F580E008952730A9F02830C9
:10040000C9F0243061F7809180008F7D03C0809116
:1004100080008F7780938000E2CF84B58F7784BD92
:10042000DECF84B58F7DFBCF8091B0008F77809336
:10043000B000D5CF8091B0008F7DF9CF80E090E003
:100440000895CF93DF9390E0FC01E656FF4F24918F
:100450008A579F4FFC0184918823D1F090E0880F48
:10046000991FFC01EE58FF4FA591B491FC01E8598A
:10047000FF4FC591D49161110EC09FB7F8948C9134
:10048000E22FE0958E238C932881E223E8839FBF9F
:10049000DF91CF9108958FB7F894EC91E22BEC9314
:1004A0008FBFF6CF8230910538F0880F991F880FE3
:1004B000991F05970197F1F70895EF92FF920F9317
:1004C0001F93CF93DF938C01862F8150990BEC0102
:1004D000EE24E394F12CCF3FDC0731F180917003DF
:1004E00097010C2E02C0220F331F0A94E2F720233B
:1004F0003123232BB1F00E948C008091720390E095
:100500000E94520280916E030E948C0080917203BF
:1005100090E00E94520280916E030E94AA002197EF
:10052000DACF0E94AA00E9CFDF91CF911F910F91FE
:10053000FF90EF9008950F931F93CF93DF93EC01FB
:1005400080916D030E948C0063E086E090E00E9441
:100550005D0260916B03CE010E945D02C0916A034F
:10056000D0E010E000E08091720390E02197E0F08D
:100570000E94520280916E030E948C00809172034F
:1005800090E00E94520280916F030E94D7010C2ECE
:1005900002C0880F991F0A94E2F7082B192B80914B
:1005A0006E030E94AA00DFCF0E94520280916D0369
:1005B0000E94AA008091720390E00E945202C8013A
:1005C000DF91CF911F910F9108950F931F93CF93B8
:1005D000DF93CAE6D3E089818250990B03E110E0F2
:1005E00002C0000F111F8A95E2F78B810E948C00D8
:1005F00069816D5FC8010E945D028B810E94AA0023
:10060000888590E0DF91CF911F910F910C94520259
:100610000F931F93CF93DF93CAE6D3E08981825073
:10062000990B00E110E002C0000F111F8A95E2F75C
:100630008B810E948C0069816D5FC8010E945D0200
:100640008B810E94AA00888590E0DF91CF911F9155
:100650000F910C9452022FB7F8946091B7027091E9
:10066000B8028091B9029091BA022FBF0895CF923B
:10067000DF92EF92FF92CF930E942B036B017C01DC
:10068000C0917503CC23D1F080916D030E948C0042
:1006900080916F030E94D701C82F81110BC00E9467
:1006A0002B036C197D098E099F096536710581053B
:1006B000910570F380916D030E94AA008C2FCF9159
:1006C000FF90EF90DF90CF900895009769F0FC01C4
:1006D00001900020E9F73197AF01481B590BBC018D
:1006E0008DEC92E00C94CA0090E080E008958F9227
:1006F0009F92AF92BF920F931F93CF93DF93CDB78B
:10070000DEB7A1970FB6F894DEBF0FBECDBF19A21A
:10071000423008F44AE08E010F5D1F4F842E912C69
:10072000B12CA12CA50194010E949F08E62FB901CC
:10073000CA01EA30D4F4E05DD801EE938D01232B99
:10074000242B252B79F7CD010E946503A1960FB6C6
:10075000F894DEBF0FBECDBFDF91CF911F910F91F7
:10076000BF90AF909F908F900895E95CE5CF0C9477
:10077000650342E050E067E171E08DEC92E00C949B
:10078000CA00CF93DF930E946503EC010E94B90376
:100790008C0F9D1FDF91CF9108958AE191E00E9417
:1007A000C10386E291E00E94C1038CE591E00E94C2
:1007B000C1038CE791E00E94C1038CE891E00E94A4
:1007C000C10384EA91E00E94C10385EB91E00E949D
:1007D000C10382ED91E00E94C10380EE91E00C9490
:1007E000C103CF93DF93682F70E090E080E04AE090
:1007F0000E947703EC010E94B9038C0F9D1FDF91CB
:10080000CF91089562EF71E08BEB92E00E946B084C
:1008100062EF71E090E080E00E946B080E944D085A
:100820008093020162EF71E090E080E00E946B082B
:100830000E944D08909304018093030162EF71E0E0
:1008400090E080E00E946B080E944D0880930101B7
:1008500062EF71E090E080E00E946B080E944D081A
:10086000809300018091030190910401892B21F470
:1008700084EF91E00C94C103809102018234D9F19C
:1008800038F48E3289F08833B1F182E092E0F2CF11
:100890008C3411F08635C9F780937403809173030B
:1008A000883099F18AE007C08093740380917303C4
:1008B0008830F9F086E080936B03909101019830C5
:1008C00091F5809171038F3F79F09093730390932A
:1008D0006A0390917403923421F1C8F49E32E9F0D6
:1008E0009833F9F00E94AA0080910001809372036E
:1008F000089587E0E0CF809374038091730388307C
:1009000011F088E0D8CF89E0D6CF8BE0D4CF9C34EB
:1009100011F0963539F79BE001C097E090936B0397
:10092000E1CF99E0FBCF80E192E0A4CF1F920F923C
:100930000FB60F9211242F933F934F935F936F93B2
:100940007F938F939F93AF93BF93EF93FF938DEC20
:1009500092E00E944801FF91EF91BF91AF919F916A
:100960008F917F916F915F914F913F912F910F9058
:100970000FBE0F901F9018951F920F920FB60F92F7
:1009800011242F938F939F93EF93FF93E091DD02B8
:10099000F091DE028081E091E302F091E40282FDB9
:1009A0001BC090818091E6028F5F8F732091E702D8
:1009B000821741F0E091E602F0E0E353FD4F958F9E
:1009C0008093E602FF91EF919F918F912F910F906D
:1009D0000FBE0F901F9018958081F4CF1F920F9239
:1009E0000FB60F9211242F933F938F939F93AF9342
:1009F000BF938091B7029091B802A091B902B091D3
:100A0000BA023091B60223E0230F2D3758F5019634
:100A1000A11DB11D2093B6028093B7029093B80236
:100A2000A093B902B093BA028091B2029091B3023E
:100A3000A091B402B091B5020196A11DB11D8093A1
:100A4000B2029093B302A093B402B093B502BF91E7
:100A5000AF919F918F913F912F910F900FBE0F906B
:100A60001F90189526E8230F0296A11DB11DD2CF25
:100A70001092D0021092CF0288EE93E0A0E0B0E096
:100A80008093D1029093D202A093D302B093D40268
:100A900089E091E09093CE028093CD0285EC90E0C6
:100AA0009093DA028093D90284EC90E09093DC0278
:100AB0008093DB0280EC90E09093DE028093DD0275
:100AC00081EC90E09093E0028093DF0282EC90E072
:100AD0009093E2028093E10286EC90E09093E4022E
:100AE0008093E3021092E6021092E7021092E8026D
:100AF0001092E90299E090936C038AE080936D0371
:100B000087E080936E038CE080936F038BE080938B
:100B1000700388E08093710326E920937203809329
:100B20006A038093730382E48093740390936B034E
:100B300081E08093750361E089E00E942102809149
:100B40006C038F3F11F00E94AA0061E080916D0359
:100B50000E94210261E080916E030E94210260E008
:100B600080916F030E94210261E0809170030E94D6
:100B70002102809171038F3F19F061E00E942102F0
:100B8000809170030E94AA0080916E030E94AA00C7
:100B900080916D030E94AA00809171030C94AA00B9
:100BA000CF93DF9300D000D0CDB7DEB7789484B573
:100BB000826084BD84B5816084BD85B5826085BD59
:100BC00085B5816085BD80916E00816080936E00E7
:100BD00010928100809181008260809381008091D9
:100BE000810081608093810080918000816080938A
:100BF00080008091B10084608093B1008091B0004A
:100C000081608093B00080917A00846080937A0044
:100C100080917A00826080937A0080917A0081606E
:100C200080937A0080917A00806880937A00109295
:100C3000C100E091DD02F091DE0282E08083E0916C
:100C4000D902F091DA021082E091DB02F091DC022D
:100C500081E080831092E502E091E102F091E202EE
:100C600086E08083E091DF02F091E0028081806184
:100C70008083E091DF02F091E002808188608083D0
:100C8000E091DF02F091E002808180688083E09152
:100C9000DF02F091E00280818F7D808361E08DE052
:100CA0000E9421028DE192E00E9465039DE9292EB8
:100CB00092E0392ECE0101966C018DEC92E00E94FB
:100CC0002801892B09F468C08DEC92E00E9406018E
:100CD000E091CC028D3029F4E11109C00E94CD03CE
:100CE00059C08A3009F0BAC1EE2309F453C080918B
:100CF000BB02823781F0D4F5853669F044F48F3336
:100D000009F457C082E592E00E94C103E7CF88361C
:100D100029F38037B9F7E93010F00E94020480917E
:100D20006C038F3F91F080916D030E94AA00809127
:100D3000720390E00E94520280916C030E948C002A
:100D40008091720390E00E9452028091BB02803732
:100D500009F429C10CF059C0853609F45AC18091B3
:100D60006C038F3FB9F00E94AA0014C0863771F05F
:100D70004CF4833739F60E94020488E191E00E9426
:100D8000650308C089370CF0BDCFC5CF8DE192E077
:100D90000E94B7031092CC0280E090E0892B09F406
:100DA0008CCF0E943401882309F487CF0E94000071
:100DB00084CF85E292E00E94C10386E392E00E9424
:100DC000B703809102010E94F1038DE392E00E943B
:100DD000B703609103017091040190E080E04AE064
:100DE0000E9477030E94B90384E492E00E94B70353
:100DF000809101010E94F1038AE492E00E94B7030E
:100E0000809100010E94F103C5CF823749F18737F5
:100E100009F0A5CF0E942B032B013C010E94E502A3
:100E20006CE08DEC92E00E946A011092CC0210E01E
:100E300000E00E942B036419750986099709653F34
:100E400071408105910508F442C082E692E00E945B
:100E5000C1030E94080387E792E00E94B7037FCF97
:100E60001092CC0210E000E0809103019091040107
:100E70000817190708F073CFC8010E949B02E09180
:100E8000CC0291E09E0F9093CC02F0E0E554FD4F30
:100E90008083E92FF0E0E554FD4F10829031A1F4FA
:100EA0002D9AF12C8091CC02F81658F4EF2DF0E039
:100EB000E554FD4F60818DEC92E00E946A01F3944D
:100EC000F1CF1092CC022D980F5F1F4FCDCF2D9AEE
:100ED0008DEC92E00E942801181619060CF059C0FA
:100EE0008DEC92E00E940601E091CC02FF24F39485
:100EF000FE0EF092CC02F0E0E554FD4F8083EF2D22
:100F0000F0E0E554FD4F10820E942B032B013C01C1
:100F1000F0E1FF12DDCF8BEBE82E82E0F82EC80166
:100F20008B5B92404C015401AE0CBF1CF701219128
:100F30007F012C8380916D030E948C0063E085E02B
:100F400090E00E945D0260916B03C5010E945D020A
:100F500060916A03EC818E2FEE0F990B0E945D0267
:100F600080916D030E94AA008091720390E00E941C
:100F700052020E943703FBECEF16F2E0FF0699F6EF
:100F8000005F1F4F85E792E00E94B7031092CC02EA
:100F90009FCF2D98809103019091040108171907A4
:100FA00008F447CF56CF2D9A8CE892E00E94C103F7
:100FB00010E000E0F12C80910301909104010817EA
:100FC000190708F5C8010E949B0299279F938F93E8
:100FD0003F922F92DF92CF920E94C708C6010E94D3
:100FE000B703F3940F900F900F900F900F900F9006
:100FF00028E1F21205C088E191E00E946503F12C1E
:101000000F5F1F4FD8CF88E191E00E9465032D98B4
:10101000A6CE0E94E50280916B038250990B02E1FB
:1010200010E002C0000F111F8A95E2F780916D0356
:101030000E948C0060916B036D5FC8010E945D028D
:101040008091720390E00E9452020E9437030E9436
:10105000080383EA92E00E94C10381CE8F3739F4FE
:10106000EE2309F499CEE150E093CC0295CEE03125
:1010700070F491E09E0F9093CC02F0E0E554FD4FA8
:101080008083E92FF0E0E554FD4F108285CE67E0C4
:101090008DEC92E00E946A017FCEFC01882799279F
:1010A000E89421912032E9F3293010F02E30C8F372
:1010B0002B3241F02D3239F4689404C00E94970815
:1010C000820F911D219120532A30C0F31EF4909578
:1010D00081959F4F089546E753E00E947008089558
:1010E000FA01A191B081009719F41097E1F0CD01B8
:1010F000DC01CD010D90002011F4C00113C0FB01F3
:101100002191222319F02015D9F7F3CFFB0121916A
:10111000201519F41E92119606C02223C1F70D90D6
:101120000020A1F7D001FA01A193B08308957AE0DD
:10113000979F902D879F802D910D11240895A1E2F6
:101140001A2EAA1BBB1BFD010DC0AA1FBB1FEE1F41
:10115000FF1FA217B307E407F50720F0A21BB30B8C
:10116000E40BF50B661F771F881F991F1A9469F708
:1011700060957095809590959B01AC01BD01CF0164
:101180000895EE0FFF1F0590F491E02D0994AEE055
:10119000B0E0EDECF8E00C94760B0D891E8986E04A
:1011A0008C831A8309838FEF9FE79E838D83AE0123
:1011B000475E5F4F6F89788DCE0101960E94EA08E5
:1011C0002F813885020F131FF80110822E96E4E05C
:1011D0000C94920BABE0B0E0E0EFF8E00C94680BFD
:1011E0007C013B018A01FC0117821682838181FF09
:1011F000C8C1CE0101965C01F7019381F30193FD13
:10120000859193FF81913F01882309F453C1853271
:1012100039F493FD859193FF81913F01853229F443
:10122000B70190E00E94DA0AE7CF912C212C312CF3
:10123000FFE1F31538F08B3211F190F4803209F1AF
:10124000833229F137FC3CC020ED280F2A3050F5BD
:1012500036FE20C08AE0989E200D1124922E06C0F2
:101260008D3291F0803371F7689430F8F30193FD7B
:10127000859193FF81913F018111DACF21C068945C
:1012800031F8689432F8F2CF689433F8EFCF68946D
:1012900034F8ECCFEAE02E9E200D1124222E689423
:1012A00035F8E4CF8E3229F436FC04C1689436F860
:1012B000DDCF8C3619F4689437F8D8CF8836B1F280
:1012C000982F9F7D95549330E0F08336A1F18337BA
:1012D000C1F1833509F063C02801F2E04F0E511CC3
:1012E000F801C080D180692D70E036FC02C06FEF3C
:1012F0007FEFC6010E94C40A4C01689437F882014E
:101300000AC00C5F1F4FFFE3F98388248394912C5C
:101310006501E89437F833FE2DC0522C81149104F6
:1013200071F5552009F468CFB70180E290E00E9482
:10133000DA0A5A94F6CFF801808189830E5F1F4F35
:10134000E4CF2801F2E04F0E511CF801C080D1809B
:10135000692D70E036FC02C06FEF7FEFC6010E947E
:10136000CF0A4C018201D5CFB70180E290E00E9404
:10137000DA0A2A942814190409F0B0F7CECFF6013E
:1013800037FC859137FE81916F01B70190E00E9493
:10139000DA0A51105A94F1E08F1A9108BFCF8436BF
:1013A00019F0893609F077C0F80137FE6BC060810B
:1013B0007181828193810C5F1F4FF32DFF763F2E49
:1013C00097FF09C090958095709561957F4F8F4FDD
:1013D0009F4F689437F82AE030E0A5010E940A0B7D
:1013E000C82ECA188C2C432C36FE0CC0E89440F84A
:1013F000C91440F434FE05C032FC03C0F32DFE7E58
:101400004F2E892C44FE95C0FE01EC0DF11D80810C
:10141000803309F087C0242D297E422E842D8870C8
:10142000582E43FC95C040FE8FC09C2C821418F4AB
:101430002C0C922C981844FE91C0B70180E390E0E8
:101440000E94DA0A42FE09C088E790E041FE02C02D
:1014500088E590E0B7010E94DA0AC91408F48AC04E
:10146000CA94D12C9FEFC91AD90ACA0CDB1CF60109
:1014700082916F01B70190E00E94DA0AAC14BD04BA
:10148000B1F74FCF60817181072E000C880B990B4B
:101490000E5F1F4F92CFD32CE894D4F82AE030E0AF
:1014A000853739F1232D297FD22E8F3601F148F46B
:1014B0008835A9F0F701868197812B96E2E10C949B
:1014C000840B803749F08837A9F7D4FE02C06894AE
:1014D000D2F820E130E00DC06894D4F8F6CF34FEA5
:1014E00003C0822F8660D82E20E132E002C028E0BF
:1014F00030E0F801D7FE0FC0608171818281938155
:101500000C5F1F4FA5010E940A0BC82ECA183D2C64
:10151000E89437F867CF6081718190E080E00E5FDA
:101520001F4FF0CF42FC02C0839478CF8394839402
:1015300075CF842D867809F471CFF6CFB70180E29C
:1015400090E00E94DA0A83948214C0F3512C73CF86
:10155000522C5818821408F46ECFF8CF842D867858
:1015600009F47BCF8BE241FE80E247FC8DE2B701BC
:1015700090E071CFB70180E390E00E94DA0A9A947C
:101580006CCF8FEF9FEF99CFFC01059061507040B9
:101590000110D8F7809590958E0F9F1F0895FC013C
:1015A0006150704001900110D8F7809590958E0F92
:1015B0009F1F08950F931F93CF93DF93182F092F29
:1015C000EB018B8181FD09C01FEF0FEF812F902F61
:1015D000DF91CF911F910F91089582FF14C02E814A
:1015E0003F818C819D81281739073CF4E881F9817E
:1015F000CF0101969983888310838E819F81019604
:101600009F838E83E3CFE885F985812F0995892B08
:10161000A1F3DACFFA01AA27283051F1203181F164
:10162000E8946F936E7F6E5F7F4F8F4F9F4FAF4FEA
:10163000B1E03ED0B4E03CD0670F781F891F9A1FFD
:10164000A11D680F791F8A1F911DA11D6A0F711DB1
:10165000811D911DA11D20D009F468943F912AE0BD
:10166000269F11243019305D3193DEF6CF010895A5
:10167000462F4770405D4193B3E00FD0C9F7F6CFD6
:10168000462F4F70405D4A3318F0495D31FD40529E
:10169000419302D0A9F7EACFB4E0A6959795879534
:1016A00077956795BA95C9F7009761057105089513
:1016B0009B01AC010A2E06945795479537952795BF
:1016C000BA95C9F7620F731F841F951FA01D089557
:1016D0002F923F924F925F926F927F928F929F9242
:1016E000AF92BF92CF92DF92EF92FF920F931F9330
:1016F000CF93DF93CDB7DEB7CA1BDB0B0FB6F894E1
:10170000DEBF0FBECDBF09942A88398848885F8420
:101710006E847D848C849B84AA84B984C884DF8091
:10172000EE80FD800C811B81AA81B981CE0FD11D75
:101730000FB6F894DEBF0FBECDBFED010895F8944B
:02174000FFCFD9
:101742009608420002000000006A01CA00F700B7D2
:1017520001280106011A010D0A002D2D2D206565B3
:1017620070202D2D2D00732C3C636869703E2C3C3B
:1017720073697A653E2C3C6F72673E2C3C70696ED1
:101782005F64656C61793E202D2053657420636F20
:101792006E66696775726174696F6E003F202D20F5
:1017A2005072696E742063757272656E7420636F15
:1017B2006E66696775726174696F6E0072202D20A2
:1017C2005265616420656570726F6D0077202D200F
:1017D200496E697469617465207772697465206DF8
:1017E2006F64650065202D20457261736520656513
:1017F20070726F6D0070202D2048657820707269BC
:101802006E7420656570726F6D20636F6E74656EA5
:10181200740068202D20546869732068656C70001C
:1018220076202D205072696E742076657273696F0E
:101832006E002C0007696E76616C69642073697AA8
:10184200650007696E76616C69642063686970007F
:1018520007696E76616C6964206F72670076322E5A
:10186200302E380A002D2D2D2073657474696E6731
:1018720073202D2D2D00636869703A200073697AF8
:10188200653A20006F72673A200064656C61793AAC
:101892002000696E76616C696420636F6D6D616EA4
:1018A2006400076461746120726561642074696D0B
:1018B200656F7574000C000D0A2D2D2D207772694D
:1018C200746520646F6E65202D2D2D002D2D2D2029
:1018D2004865782064756D70202D2D2D00253032DD
:1018E20058200007656570726F6D206572617365BF
:0218F200640090
:00000001FF
