:100000000C9462000C948A000C948A000C948A0070
:100010000C948A000C948A000C948A000C948A0038
:100020000C948A000C948A000C948A000C948A0028
:100030000C948A000C948A000C948A000C948A0018
:100040000C94E3040C948A000C94B1040C948B047B
:100050000C948A000C948A000C948A000C948A00F8
:100060000C948A000C948A000000000025002800EF
:100070002B0000000000240027002A0000000000E0
:1000800023002600290004040404040404040202DA
:100090000202020203030303030301020408102007
:1000A0004080010204081020010204081020000012
:1000B0000008000201000003040700000000000027
:1000C00000002D0511241FBECFEFD8E0DEBFCDBF4D
:1000D00023E0A6EAB2E001C01D92A338B207E1F71F
:1000E00012E0A0E0B1E0E2EDF7E102C005900D9270
:1000F000A63AB107D9F710E0C2E6D0E004C02197D4
:10010000FE010E940909C136D107C9F70E94C8053E
:100110000C94E70B0C940000883058F49BB121E05C
:1001200030E001C0220F8A95EAF7892F822B8BB924
:1001300008958E3070F425B18850990B41E050E05D
:10014000BA0102C0660F771F8A95E2F7CB01822BB6
:1001500085B90895883070F44BB121E030E0B901E1
:1001600002C0660F771F8A95E2F7CB018095842342
:100170008BB908958E3068F445B1682F6850770BBD
:1001800081E090E001C0880F6A95EAF780958423AA
:1001900085B908958230910538F0880F991F880F2E
:1001A000991F05970197F1F70895EF92FF920F932A
:1001B0001F93CF93DF938C01862F8150990BEC0115
:1001C000EE24E394F12CCF3FDC0741F180917A03D8
:1001D00097010C2E02C0220F331F0A94E2F720234E
:1001E0003123232BC1F00E948C0080917C039091DD
:1001F0007D030E94CA00809178030E948C00809148
:100200007C0390917D030E94CA00809178030E9434
:10021000AA002197D8CF0E94AA00E7CFDF91CF9103
:100220001F910F91FF90EF9008950F931F93CF931D
:10023000DF93C4E7D3E089818250990B03E110E09A
:1002400002C0000F111F8A95E2F78B810E948C007B
:1002500069816D5FC8010E94D5008B810E94AA0050
:1002600088859985DF91CF911F910F910C94CA00D9
:100270000F931F93CF93DF93C4E7D3E0898182501C
:10028000990B00E110E002C0000F111F8A95E2F700
:100290008B810E948C0069816D5FC8010E94D5002E
:1002A0008B810E94AA0088859985DF91CF911F914B
:1002B0000F910C94CA00AF92BF92CF92DF92EF924F
:1002C000FF920F931F93CF93DF936C017B018B0100
:1002D000040F151FEB015E01AE18BF08C017D10750
:1002E00059F06991D601ED91FC910190F081E02DDA
:1002F000C6010995892B79F7C501DF91CF911F912F
:100300000F91FF90EF90DF90CF90BF90AF90089546
:10031000FC01538D448D252F30E0842F90E0821B0B
:10032000930B541710F0CF96089501970895FC0190
:10033000918D828D981761F0A28DAE0FBF2FB11DE8
:100340005D968C91928D9F5F9F73928F90E0089540
:100350008FEF9FEF0895FC01918D828D981731F0FA
:10036000828DE80FF11D858D90E008958FEF9FEF4E
:100370000895FC01918D228D892F90E0805C9F4F24
:10038000821B91098F739927089587ED92E00E944F
:10039000B90121E0892B09F420E0822F089580E043
:1003A00090E0892B29F00E94C50181110C94000076
:1003B0000895FC01A48DA80FB92FB11DA35ABF4FFA
:1003C0002C91848D90E001968F739927848FA68954
:1003D000B7892C93A089B1898C91837080648C93A8
:1003E000938D848D981306C00288F389E02D808157
:1003F0008F7D80830895EF92FF920F931F93CF9389
:10040000DF93EC0181E0888F9B8D8C8D98131AC04F
:10041000E889F989808185FF15C09FB7F894EE8936
:10042000FF896083E889F989808183708064808393
:100430009FBF81E090E0DF91CF911F910F91FF90DE
:10044000EF900895F62E0B8D10E00F5F1F4F0F7386
:100450001127E02E8C8D8E110CC00FB607FCFACF41
:10046000E889F989808185FFF5CFCE010E94D90105
:10047000F1CFEB8DEC0FFD2FF11DE35AFF4FF08212
:100480009FB7F8940B8FEA89FB8980818062CFCF78
:10049000CF93DF93EC01888D8823B9F0AA89BB89BB
:1004A000E889F9898C9185FD03C0808186FD0DC0A6
:1004B0000FB607FCF7CF8C9185FFF2CF808185FFC7
:1004C000EDCFCE010E94D901E9CFDF91CF91089500
:1004D00090E0FC01E255FF4F2491FC01E656FF4FEE
:1004E0003491FC01EA57FF4FE491EE23C1F122233E
:1004F00039F02330E9F090F4213001F1223011F18C
:10050000F0E0EE0FFF1FE458FF4FA591B491EC917E
:10051000E32381E090E029F580E008952730A9F0F9
:100520002830C9F0243061F7809180008F7D03C0AE
:10053000809180008F7780938000E2CF84B58F77A1
:1005400084BDDECF84B58F7DFBCF8091B0008F77E7
:100550008093B000D5CF8091B0008F7DF9CF80E03F
:1005600090E008950F931F93CF93DF93EC01809158
:1005700077030E948C0063E086E090E00E94D50043
:1005800060917503CE010E94D500C0917403D0E044
:1005900010E000E080917C0390917D032197E8F0CA
:1005A0000E94CA00809178030E948C0080917C0395
:1005B00090917D030E94CA00809179030E94680295
:1005C0000C2E02C0880F991F0A94E2F7082B192BF2
:1005D000809178030E94AA00DDCF0E94CA0080911A
:1005E00077030E94AA0080917C0390917D030E9472
:1005F000CA00C801DF91CF911F910F910895CF9349
:10060000DF9390E0FC01E656FF4F24918A579F4FFD
:10061000FC0184918823D1F090E0880F991FFC01A0
:10062000EE58FF4FA591B491FC01E859FF4FC591D9
:10063000D49161110EC09FB7F8948C91E22FE09590
:100640008E238C932881E223E8839FBFDF91CF9193
:1006500008958FB7F894EC91E22BEC938FBFF6CF0F
:100660002FB7F8946091AB027091AC028091AD020B
:100670009091AE022FBF0895CF92DF92EF92FF923A
:10068000CF930E9430036B017C01C0918003CC2387
:10069000D1F0809177030E948C00809179030E94B1
:1006A0006802C82F81110BC00E9430036C197D09AC
:1006B0008E099F09653671058105910570F380915A
:1006C00077030E94AA008C2FCF91FF90EF90DF90CC
:1006D000CF900895009769F0FC0101900020E9F7A0
:1006E0003197AF01481B590BBC0187ED92E00C9488
:1006F0005B0190E080E008958F929F92AF92BF924D
:100700000F931F93CF93DF93CDB7DEB7A1970FB6AB
:10071000F894DEBF0FBECDBF19A2423008F44AE004
:100720008E010F5D1F4F842E912CB12CA12CA501A1
:1007300094010E94E708E62FB901CA01EA30D4F417
:10074000E05DD801EE938D01232B242B252B79F727
:10075000CD010E946A03A1960FB6F894DEBF0FBECA
:10076000CDBFDF91CF911F910F91BF90AF909F9020
:100770008F900895E95CE5CF42E050E068E171E0D8
:1007800087ED92E00C945B01CF93DF930E946A03A4
:10079000EC010E94BC038C0F9D1FDF91CF91089547
:1007A0008BE191E00E94C40387E291E00E94C403C0
:1007B0008DE591E00E94C4038DE791E00E94C4039F
:1007C0008DE891E00E94C40385EA91E00E94C40391
:1007D00086EB91E00E94C40383ED91E00C94C40386
:1007E00061EE71E086EC92E00E94B30861EE71E088
:1007F00090E080E00E94B3080E9495088093050174
:1008000061EE71E090E080E00E94B3080E949508DC
:10081000909304018093030161EE71E090E080E029
:100820000E94B3080E9495088093020161EE71E076
:1008300090E080E00E94B3080E9495089093010127
:10084000809300018091030190910401892B21F490
:1008500083EE91E00C94C40380910501823409F485
:100860003FC038F48E3289F08833D1F181EF91E0C6
:10087000F1CF8C3411F08635C9F780937F038091D6
:100880007E038830B9F18AE007C080937F038091AE
:100890007E03883019F186E0809375039091020100
:1008A0009830B1F580917B038F3F79F090937E0370
:1008B0009093740390917F03923441F1E8F49E3257
:1008C00009F1983319F10E94AA00809100019091DA
:1008D000010190937D0380937C03089587E0DCCF32
:1008E00080937F0380917E03883011F088E0D4CF1D
:1008F00089E0D2CF8BE0D0CF9C3411F0963519F738
:100900009BE001C097E090937503DDCF99E0FBCFAA
:100910008FEF91E09FCF1F920F920FB60F9211248D
:100920002F933F934F935F936F937F938F939F93F7
:10093000AF93BF93EF93FF9387ED92E00E94D901AD
:10094000FF91EF91BF91AF919F918F917F916F91A7
:100950005F914F913F912F910F900FBE0F901F907D
:1009600018951F920F920FB60F9211242F938F9309
:100970009F93EF93FF93E091E702F091E80280816B
:10098000E091ED02F091EE0282FD1BC0908180911A
:10099000F0028F5F8F732091F102821741F0E09196
:1009A000F002F0E0E952FD4F958F8093F002FF9145
:1009B000EF919F918F912F910F900FBE0F901F90ED
:1009C00018958081F4CF1F920F920FB60F921124C9
:1009D0002F933F938F939F93AF93BF938091AB02DD
:1009E0009091AC02A091AD02B091AE023091AA02FA
:1009F00023E0230F2D3758F50196A11DB11D20933B
:100A0000AA028093AB029093AC02A093AD02B09384
:100A1000AE028091A6029091A702A091A802B09187
:100A2000A9020196A11DB11D8093A6029093A70271
:100A3000A093A802B093A902BF91AF919F918F910B
:100A40003F912F910F900FBE0F901F90189526E8A1
:100A5000230F0296A11DB11DD2CF1092DA0210927F
:100A6000D90288EE93E0A0E0B0E08093DB0290939F
:100A7000DC02A093DD02B093DE028AE091E0909365
:100A8000D8028093D70285EC90E09093E4028093A3
:100A9000E30284EC90E09093E6028093E50280EC20
:100AA00090E09093E8028093E70281EC90E09093CD
:100AB000EA028093E90282EC90E09093EC0280934A
:100AC000EB0286EC90E09093EE028093ED021092A0
:100AD000F0021092F1021092F2021092F30299E0E9
:100AE000909376038AE08093770387E0809378037E
:100AF0008CE0809379038BE080937A0388E0809385
:100B00007B0328EC30E030937D0320937C038093BB
:100B1000740380937E0382E480937F039093750334
:100B200081E08093800361E089E00E94FF02809170
:100B300076038F3F11F00E94AA0061E08091770355
:100B40000E94FF0261E0809178030E94FF0260E052
:100B5000809179030E94FF0261E080917A030E94F4
:100B6000FF0280917B038F3F19F061E00E94FF023A
:100B700080917A030E94AA00809178030E94AA00C3
:100B8000809177030E94AA0080917B030C94AA00B5
:100B9000CF93DF9300D000D0CDB7DEB7789484B583
:100BA000826084BD84B5816084BD85B5826085BD69
:100BB00085B5816085BD80916E00816080936E00F7
:100BC00010928100809181008260809381008091E9
:100BD000810081608093810080918000816080939A
:100BE00080008091B10084608093B1008091B0005A
:100BF00081608093B00080917A00846080937A0055
:100C000080917A00826080937A0080917A0081607E
:100C100080937A0080917A00806880937A001092A5
:100C2000C100E091E702F091E80282E08083E09168
:100C3000E702F091E8021082E091E302F091E40211
:100C40001082E091E502F091E60280E1808310924B
:100C5000EF02E091EB02F091EC0286E08083E091FC
:100C6000E902F091EA02808180618083E091E902EB
:100C7000F091EA02808188608083E091E902F0913E
:100C8000EA02808180688083E091E902F091EA02C3
:100C900080818F7D808361E08DE00E94FF0287E18B
:100CA00093E00197F1F78CE092E00E946A03CE0195
:100CB00001966C019CE8292E92E0392E22E1422E09
:100CC000512C80E0682E80E0782E87ED92E00E9423
:100CD000B9011816190664F487ED92E00E94970195
:100CE000E091C5028D3071F4E11112C00E94D00371
:100CF0006114710451F30E94C501882331F30E94ED
:100D00000000DFCF8A3009F0F1C1EE2309F490C072
:100D10008091C602803709F459C00CF048C085366E
:100D200009F454C0883609F44BC08F3309F044C02D
:100D300084E192E00E94C40385E292E00E946A038B
:100D40006091050170E090E080E04AE00E947C0341
:100D50000E94BC038CE292E00E946A03609103014E
:100D60007091040190E080E04AE00E947C030E94C0
:100D7000BC0383E392E00E946A036091020170E089
:100D800090E080E04AE00E947C030E94BC0389E37B
:100D900092E00E946A03609100017091010190E06D
:100DA00080E04AE00E947C030E94BC0341C083377C
:100DB000C9F14CF4823751F081E492E00E94C403FF
:100DC0000E94D00335C087578230B0F7E93010F069
:100DD0000E94F003809176038F3FA1F0809177030A
:100DE0000E94AA0080917C0390917D030E94CA001A
:100DF000809176030E948C0080917C0390917D030A
:100E00000E94CA008091C602803709F4EEC09CF4AB
:100E1000853609F448C1809176038F3F49F00E94DE
:100E2000AA0006C00E94F00389E191E00E946A03D3
:100E30001092C5025DCF823791F1873761F70E942A
:100E400030036093C1027093C2028093C3029093F7
:100E5000C4020E9415016CE087ED92E00E94FB0144
:100E60001092C002F12CE12C0E9430030091C102CB
:100E70001091C2022091C3023091C402601B710B19
:100E8000820B930B693E73408105910508F450C0B5
:100E90000E94380181E592E00E94C403BCCF109209
:100EA000C00210E000E08091030190910401081756
:100EB000190708F0B0CFC8010E94B202E091C00249
:100EC00091E09E0F9093C002F0E0E155FD4F8083CA
:100ED000E92FF0E0E155FD4F10829031A1F42D9AF9
:100EE000F12C8091C002F81658F4EF2DF0E0E15596
:100EF000FD4F608187ED92E00E94FB01F394F1CFFA
:100F00001092C0022D980F5F1F4FCDCF84E692E064
:100F10000E946A031092C0022D9878010E9430034B
:100F20006093C1027093C2028093C3029093C40283
:100F300087ED92E00E94B901181619060CF049C01D
:100F400087ED92E00E949701E091C00291E09E0F30
:100F50009093C002F0E0E155FD4F8083E92FF0E06F
:100F6000E155FD4F10829031C9F62D9A8701E02F8F
:100F7000EE198091C002E81748F6F0E0E155FD4F08
:100F8000A0800A2C000CBB0848018FEF881A980A31
:100F9000809177030E948C0063E085E090E00E94DE
:100FA000D50060917503C8010E94D500609174035B
:100FB000C5010E94D500809177030E94AA0080910C
:100FC0007C0390917D030E94CA000E943C0384012F
:100FD000CECFE11492E0F90609F046CF0E94380125
:100FE00086E692E00E946A0316CF2D9A8BE792E084
:100FF0000E94C40310E000E0F12C80910301909165
:1010000004010817190708F048C0809102018830D0
:1010100089F0803139F1C6010E946A03F39498E1A6
:10102000F91205C089E191E00E946A03F12C0F5F7B
:101030001F4FE3CFC8010E94B202282F082E000CD8
:10104000330B3F938F9380E992E09F938F93DF92CE
:10105000CF920E940F090F900F900F900F900F905A
:101060000F90D9CFC8010E94B202082E000C990B34
:101070009C0133273F932F93892F880F880B8F93E1
:101080009F933F922F92DF92CF920E940F090FB64B
:10109000F894DEBF0FBECDBFBECF89E191E00E94C4
:1010A0006A032D98B8CE0E94150180917503825075
:1010B000990B820102C0000F111F8A95E2F78091FF
:1010C00077030E948C00609175036D5FC8010E94D8
:1010D000D50080917C0390917D030E94CA000E94FC
:1010E0003C030E94380186E992E0D6CE8F3739F46E
:1010F000EE2309F4FDCDE150E093C502F9CDE031D6
:1011000070F491E09E0F9093C502F0E0EA53FD4F1A
:101110008083E92FF0E0EA53FD4F1082E9CD67E0CC
:1011200087ED92E00E94FB01E3CDFC01882799271F
:10113000E89421912032E9F3293010F02E30C8F3E1
:101140002B3241F02D3239F4689404C00E94DF083C
:10115000820F911D219120532A30C0F31EF49095E7
:1011600081959F4F089541E853E00E94B808089583
:10117000FA01A191B081009719F41097E1F0CD0127
:10118000DC01CD010D90002011F4C00113C0FB0162
:101190002191222319F02015D9F7F3CFFB012191DA
:1011A000201519F41E92119606C02223C1F70D9046
:1011B0000020A1F7D001FA01A193B08308957AE04D
:1011C000979F902D879F802D910D11240895A1E266
:1011D0001A2EAA1BBB1BFD010DC0AA1FBB1FEE1FB1
:1011E000FF1FA217B307E407F50720F0A21BB30BFC
:1011F000E40BF50B661F771F881F991F1A9469F778
:1012000060957095809590959B01AC01BD01CF01D3
:101210000895EE0FFF1F0590F491E02D0994AEE0C4
:10122000B0E0E5E1F9E00C94BE0B0D891E8986E083
:101230008C831A8309838FEF9FE79E838D83AE0192
:10124000475E5F4F6F89788DCE0101960E9432090B
:101250002F813885020F131FF80110822E96E4E0CB
:101260000C94DA0BABE0B0E0E8E3F9E00C94B00BDF
:101270007C013B018A01FC0117821682838181FF78
:10128000C8C1CE0101965C01F7019381F30193FD82
:10129000859193FF81913F01882309F453C18532E1
:1012A00039F493FD859193FF81913F01853229F4B3
:1012B000B70190E00E94220BE7CF912C212C312C1A
:1012C000FFE1F31538F08B3211F190F4803209F11F
:1012D000833229F137FC3CC020ED280F2A3050F52D
:1012E00036FE20C08AE0989E200D1124922E06C062
:1012F0008D3291F0803371F7689430F8F30193FDEB
:10130000859193FF81913F018111DACF21C06894CB
:1013100031F8689432F8F2CF689433F8EFCF6894DC
:1013200034F8ECCFEAE02E9E200D1124222E689492
:1013300035F8E4CF8E3229F436FC04C1689436F8CF
:10134000DDCF8C3619F4689437F8D8CF8836B1F2EF
:10135000982F9F7D95549330E0F08336A1F1833729
:10136000C1F1833509F063C02801F2E04F0E511C32
:10137000F801C080D180692D70E036FC02C06FEFAB
:101380007FEFC6010E940C0B4C01689437F8820174
:101390000AC00C5F1F4FFFE3F98388248394912CCC
:1013A0006501E89437F833FE2DC0522C8114910466
:1013B00071F5552009F468CFB70180E290E00E94F2
:1013C000220B5A94F6CFF801808189830E5F1F4F5C
:1013D000E4CF2801F2E04F0E511CF801C080D1800B
:1013E000692D70E036FC02C06FEF7FEFC6010E94EE
:1013F000170B4C018201D5CFB70180E290E00E942B
:10140000220B2A942814190409F0B0F7CECFF60164
:1014100037FC859137FE81916F01B70190E00E9402
:10142000220B51105A94F1E08F1A9108BFCF8436E5
:1014300019F0893609F077C0F80137FE6BC060817A
:101440007181828193810C5F1F4FF32DFF763F2EB8
:1014500097FF09C090958095709561957F4F8F4F4C
:101460009F4F689437F82AE030E0A5010E94520BA4
:10147000C82ECA188C2C432C36FE0CC0E89440F8B9
:10148000C91440F434FE05C032FC03C0F32DFE7EC7
:101490004F2E892C44FE95C0FE01EC0DF11D80817C
:1014A000803309F087C0242D297E422E842D887038
:1014B000582E43FC95C040FE8FC09C2C821418F41B
:1014C0002C0C922C981844FE91C0B70180E390E058
:1014D0000E94220B42FE09C088E790E041FE02C054
:1014E00088E590E0B7010E94220BC91408F48AC075
:1014F000CA94D12C9FEFC91AD90ACA0CDB1CF60179
:1015000082916F01B70190E00E94220BAC14BD04E0
:10151000B1F74FCF60817181072E000C880B990BBA
:101520000E5F1F4F92CFD32CE894D4F82AE030E01E
:10153000853739F1232D297FD22E8F3601F148F4DA
:101540008835A9F0F701868197812B96E2E10C940A
:10155000CC0B803749F08837A9F7D4FE02C06894D5
:10156000D2F820E130E00DC06894D4F8F6CF34FE14
:1015700003C0822F8660D82E20E132E002C028E02E
:1015800030E0F801D7FE0FC06081718182819381C4
:101590000C5F1F4FA5010E94520BC82ECA183D2C8C
:1015A000E89437F867CF6081718190E080E00E5F4A
:1015B0001F4FF0CF42FC02C0839478CF8394839472
:1015C00075CF842D867809F471CFF6CFB70180E20C
:1015D00090E00E94220B83948214C0F3512C73CFAD
:1015E000522C5818821408F46ECFF8CF842D8678C8
:1015F00009F47BCF8BE241FE80E247FC8DE2B7012C
:1016000090E071CFB70180E390E00E94220B9A94A2
:101610006CCF8FEF9FEF99CFFC0105906150704028
:101620000110D8F7809590958E0F9F1F0895FC01AB
:101630006150704001900110D8F7809590958E0F01
:101640009F1F08950F931F93CF93DF93182F092F98
:10165000EB018B8181FD09C01FEF0FEF812F902FD0
:10166000DF91CF911F910F91089582FF14C02E81B9
:101670003F818C819D81281739073CF4E881F981ED
:10168000CF0101969983888310838E819F81019673
:101690009F838E83E3CFE885F985812F0995892B78
:1016A000A1F3DACFFA01AA27283051F1203181F1D4
:1016B000E8946F936E7F6E5F7F4F8F4F9F4FAF4F5A
:1016C000B1E03ED0B4E03CD0670F781F891F9A1F6D
:1016D000A11D680F791F8A1F911DA11D6A0F711D21
:1016E000811D911DA11D20D009F468943F912AE02D
:1016F000269F11243019305D3193DEF6CF01089515
:10170000462F4770405D4193B3E00FD0C9F7F6CF45
:10171000462F4F70405D4A3318F0495D31FD40520D
:10172000419302D0A9F7EACFB4E0A69597958795A3
:1017300077956795BA95C9F7009761057105089582
:101740009B01AC010A2E069457954795379527952E
:10175000BA95C9F7620F731F841F951FA01D0895C6
:101760002F923F924F925F926F927F928F929F92B1
:10177000AF92BF92CF92DF92EF92FF920F931F939F
:10178000CF93DF93CDB7DEB7CA1BDB0B0FB6F89450
:10179000DEBF0FBECDBF09942A88398848885F8490
:1017A0006E847D848C849B84AA84B984C884DF8001
:1017B000EE80FD800C811B81AA81B981CE0FD11DE5
:1017C0000FB6F894DEBF0FBECDBFED010895F894BB
:0217D000FFCF49
:1017D200C8000800024200000000FB015B01880112
:1017E2004802B9019701AB010D0A002D2D2D20658C
:1017F2006570202D2D2D00732C3C636869703E2C82
:101802003C73697A653E2C3C6F72673E2C3C706972
:101812006E5F64656C61793E202D20536574206390
:101822006F6E66696775726174696F6E003F202D15
:10183200205072696E742063757272656E742063D3
:101842006F6E66696775726174696F6E0072202DC2
:10185200205265616420656570726F6D0077202D7E
:1018620020496E69746961746520777269746520B4
:101872006D6F64650065202D20457261736520657A
:101882006570726F6D0070202D204865782070722F
:10189200696E7420656570726F6D20636F6E74651A
:1018A2006E740068202D20546869732068656C701E
:1018B200002C0007696E76616C69642073697A6531
:1018C2000007696E76616C6964206368697000075D
:1018D200696E76616C6964206F72670076322E30B1
:1018E2002E350A002D2D2D2073657474696E677371
:1018F200202D2D2D00636869703A200073697A6586
:101902003A20006F72673A200064656C61793A2070
:1019120000696E76616C696420636F6D6D616E64DF
:1019220000076461746120726561642074696D6589
:101932006F7574000C000D0A2D2D2D2077726974BD
:101942006520646F6E65202D2D2D002D2D2D2048D4
:1019520065782064756D70202D2D2D00253032584C
:1019620025303258200007656570726F6D206572F0
:06197200617365640000D2
:00000001FF
