:100000000C9462000C948A000C948A000C948A0070
:100010000C948A000C948A000C948A000C948A0038
:100020000C948A000C948A000C948A000C948A0028
:100030000C948A000C948A000C948A000C948A0018
:100040000C946D050C948A000C943B050C941505DA
:100050000C948A000C948A000C948A000C948A00F8
:100060000C948A000C948A000000000024002700F1
:100070002A000000000023002600290000000000E4
:10008000250028002B0004040404040404040202D4
:100090000202020203030303030301020408102007
:1000A0004080010204081020010204081020000012
:1000B0000008000201000003040700000000000027
:1000C0000000B70511241FBECFEFD8E0DEBFCDBFC3
:1000D00023E0AEE9B2E001C01D92AA36B207E1F713
:1000E00012E0A0E0B1E0E0E8F8E102C005900D9276
:1000F000AE39B107D9F710E0C2E6D0E004C02197CD
:10010000FE010E946009C136D107C9F70E9452065C
:100110000C943E0C0C940000883058F49BB121E004
:1001200030E001C0220F8A95EAF7892F822B8BB924
:1001300008958E3070F425B18850990B41E050E05D
:10014000BA0102C0660F771F8A95E2F7CB01822BB6
:1001500085B90895883070F44BB121E030E0B901E1
:1001600002C0660F771F8A95E2F7CB018095842342
:100170008BB908958E3068F445B1682F6850770BBD
:1001800081E090E001C0880F6A95EAF780958423AA
:1001900085B90895AF92BF92CF92DF92EF92FF920E
:1001A0000F931F93CF93DF936C017B018B01040F9F
:1001B000151FEB015E01AE18BF08C017D10759F03B
:1001C0006991D601ED91FC910190F081E02DC6017D
:1001D0000995892B79F7C501DF91CF911F910F9177
:1001E000FF90EF90DF90CF90BF90AF900895FC010B
:1001F000538D448D252F30E0842F90E0821B930B8C
:10020000541710F0CF96089501970895FC01918D31
:10021000828D981761F0A28DAE0FBF2FB11D5D9634
:100220008C91928D9F5F9F73928F90E008958FEFD6
:100230009FEF0895FC01918D828D981731F0828D8A
:10024000E80FF11D858D90E008958FEF9FEF0895E1
:10025000FC01918D228D892F90E0805C9F4F821B45
:1002600091098F73992708958EEB92E00E942801DF
:1002700021E0892B09F420E0822F089580E090E0AE
:10028000892B29F00E94340181110C9400000895FB
:10029000FC01A48DA80FB92FB11DA35ABF4F2C91FB
:1002A000848D90E001968F739927848FA689B789F2
:1002B0002C93A089B1898C91837080648C93938DE9
:1002C000848D981306C00288F389E02D80818F7D8C
:1002D00080830895EF92FF920F931F93CF93DF9344
:1002E000EC0181E0888F9B8D8C8D98131AC0E88972
:1002F000F989808185FF15C09FB7F894EE89FF8941
:100300006083E889F98980818370806480839FBFDE
:1003100081E090E0DF91CF911F910F91FF90EF90DE
:100320000895F62E0B8D10E00F5F1F4F0F731127EE
:10033000E02E8C8D8E110CC00FB607FCFACFE88929
:10034000F989808185FFF5CFCE010E944801F1CF68
:10035000EB8DEC0FFD2FF11DE35AFF4FF0829FB79D
:10036000F8940B8FEA89FB8980818062CFCFCF938D
:10037000DF93EC01888D8823B9F0AA89BB89E889CD
:10038000F9898C9185FD03C0808186FD0DC00FB673
:1003900007FCF7CF8C9185FFF2CF808185FFEDCFF1
:1003A000CE010E944801E9CFDF91CF9108958330BB
:1003B00081F028F4813099F08230A9F008958730D7
:1003C000A9F08830C9F08430B1F4809180008F7D2D
:1003D00003C0809180008F7780938000089584B55A
:1003E0008F7784BD089584B58F7DFBCF8091B00059
:1003F0008F778093B00008958091B0008F7DF9CF02
:100400001F93CF93DF93EBEBF0E09491E7EAF0E0FA
:10041000D491E3E9F0E0C491CC23B9F0182F9923EB
:1004200019F0892F0E94D701EC2FF0E0EE0FFF1F8B
:10043000E458FF4FA591B4918FB7F894EC91111146
:1004400008C0D095DE23DC938FBFDF91CF911F9141
:100450000895DE2BF8CFCF93DF93282F30E0F901FA
:10046000E255FF4F8491F901E656FF4FD491F9010F
:10047000EA57FF4FC491CC23A1F081110E94D7010C
:10048000EC2FF0E0EE0FFF1FEE58FF4FA591B49157
:10049000EC91ED2381E090E009F480E0DF91CF91D1
:1004A000089580E090E0FACFCF93DF9390E0FC01D5
:1004B000E656FF4F24918A579F4FFC018491882371
:1004C000D1F090E0880F991FFC01E859FF4FA591EA
:1004D000B491FC01E458FF4FC591D49161110EC055
:1004E0009FB7F8948C91E22FE0958E238C9328810E
:1004F000E223E8839FBFDF91CF9108958FB7F894EF
:10050000EC91E22BEC938FBFF6CF8230910538F05F
:10051000880F991F880F991F05970197F1F7089584
:10052000EF92FF920F931F93CF93DF938C01862F4F
:100530008150990BEC01EE24E394F12CCF3FDC07C2
:1005400041F18091610397010C2E02C0220F331FED
:100550000A94E2F720233123232BC1F00E948C0060
:1005600080916303909164030E94850280915F03F0
:100570000E948C0080916303909164030E94850225
:1005800080915F030E94AA002197D8CF0E94AA0001
:10059000E7CFDF91CF911F910F91FF90EF900895DA
:1005A0000F931F93CF93DF93EC0180915E030E9422
:1005B0008C0063E086E090E00E94900260915C0312
:1005C000CE010E949002C0915B03D0E010E000E0F9
:1005D00080916303909164032197E8F00E94850263
:1005E00080915F030E948C0080916303909164036B
:1005F0000E948502809160030E942B020C2E02C093
:10060000880F991F0A94E2F7082B192B80915F033A
:100610000E94AA00DDCF0E94850280915E030E94A5
:10062000AA0080916303909164030E948502C8012F
:10063000DF91CF911F910F9108950F931F93CF9347
:10064000DF93CBE5D3E089818250990B03E110E081
:1006500002C0000F111F8A95E2F78B810E948C0067
:1006600069816D5FC8010E9490028B810E94AA007F
:1006700088859985DF91CF911F910F910C94850208
:100680000F931F93CF93DF93CBE5D3E08981825003
:10069000990B00E110E002C0000F111F8A95E2F7EC
:1006A0008B810E948C0069816D5FC8010E9490025D
:1006B0008B810E94AA0088859985DF91CF911F9137
:1006C0000F910C9485023FB7F8948091A30290910A
:1006D000A402A091A502B091A60226B5A89B05C0D0
:1006E0002F3F19F00196A11DB11D3FBFBA2FA92FB1
:1006F000982F8827BC01CD01620F711D811D911DAE
:1007000042E0660F771F881F991F4A95D1F7089519
:100710008F929F92AF92BF92CF92DF92EF92FF9211
:100720004B015C010E9463036B017C010E94630327
:100730006C197D098E099F09683E734081059105FA
:10074000A8F321E0821A9108A108B10888EEC80E2A
:1007500083E0D81EE11CF11C81149104A104B104B2
:1007600029F7FF90EF90DF90CF90BF90AF909F90D0
:100770008F9008952FB7F89460919F027091A00216
:100780008091A1029091A2022FBF0895CF92DF9293
:10079000EF92FF92CF930E94BA036B017C01C0914C
:1007A0006703CC23D1F080915E030E948C0080917E
:1007B00060030E942B02C82F81110BC00E94BA0354
:1007C0006C197D098E099F096536710581059105B2
:1007D00070F380915E030E94AA008C2FCF91FF904E
:1007E000EF90DF90CF900895009769F0FC010190A1
:1007F0000020E9F73197AF01481B590BBC018EEB84
:1008000092E00C94CA0090E080E008958F929F924D
:10081000AF92BF920F931F93CF93DF93CDB7DEB705
:10082000A1970FB6F894DEBF0FBECDBF19A242301C
:1008300008F44AE08E010F5D1F4F842E912CB12CDD
:10084000A12CA50194010E943E09E62FB901CA011D
:10085000EA30D4F4E05DD801EE938D01232B242BF4
:10086000252B79F7CD010E94F403A1960FB6F894D9
:10087000DEBF0FBECDBFDF91CF911F910F91BF9013
:10088000AF909F908F900895E95CE5CF42E050E0F3
:1008900068E171E08EEB92E00C94CA00CF93DF9395
:1008A0000E94F403EC010E9446048C0F9D1FDF910F
:1008B000CF9108958BE191E00E944E0487E291E090
:1008C0000E944E048DE591E00E944E048DE791E078
:1008D0000E944E048DE891E00E944E0485EA91E06A
:1008E0000E944E0486EB91E00E944E0483ED91E05D
:1008F0000C944E0461EE71E08DEA92E00E940A09C8
:1009000061EE71E090E080E00E940A090E94EC082C
:100910008093050161EE71E090E080E00E940A0999
:100920000E94EC08909304018093030161EE71E052
:1009300090E080E00E940A090E94EC088093020186
:1009400061EE71E090E080E00E940A090E94EC08EC
:100950009093010180930001809103019091040123
:10096000892B21F483EE91E00C944E0480910501D3
:10097000823409F43FC038F48E3289F08833D1F1E3
:1009800081EF91E0F1CF8C3411F08635C9F7809377
:100990006603809165038830B9F18AE007C08093CF
:1009A000660380916503883019F186E080935C03CB
:1009B000909102019830B1F5809162038F3F79F0F8
:1009C0009093650390935B0390916603923441F199
:1009D000E8F49E3209F1983319F10E94AA0080913F
:1009E0000001909101019093640380936303089543
:1009F00087E0DCCF8093660380916503883011F037
:100A000088E0D4CF89E0D2CF8BE0D0CF9C3411F0F6
:100A1000963519F79BE001C097E090935C03DDCF1A
:100A200099E0FBCF8FEF91E09FCF1F920F920FB60F
:100A30000F9211242F933F934F935F936F937F9364
:100A40008F939F93AF93BF93EF93FF938EEB92E0BF
:100A50000E944801FF91EF91BF91AF919F918F91BB
:100A60007F916F915F914F913F912F910F900FBEAA
:100A70000F901F9018951F920F920FB60F9211248E
:100A80002F938F939F93EF93FF93E091CE02F0917A
:100A9000CF028081E091D402F091D50282FD1BC08B
:100AA00090818091D7028F5F8F732091D802821737
:100AB00041F0E091D702F0E0E254FD4F958F809332
:100AC000D702FF91EF919F918F912F910F900FBEC1
:100AD0000F901F9018958081F4CF1F920F920FB640
:100AE0000F9211242F933F938F939F93AF93BF93B4
:100AF00080919F029091A002A091A102B091A202C8
:100B000030919E0223E0230F2D3758F50196A11D49
:100B1000B11D20939E0280939F029093A002A09308
:100B2000A102B093A2028091A3029091A402A0918D
:100B3000A502B091A6020196A11DB11D8093A3024A
:100B40009093A402A093A502B093A602BF91AF9187
:100B50009F918F913F912F910F900FBE0F901F90FB
:100B6000189526E8230F0296A11DB11DD2CF109231
:100B7000C1021092C00288EE93E0A0E0B0E0809342
:100B8000C2029093C302A093C402B093C5028AE04C
:100B900091E09093BF028093BE0285EC90E0909329
:100BA000CB028093CA0284EC90E09093CD028093B4
:100BB000CC0280EC90E09093CF028093CE0281EC47
:100BC00090E09093D1028093D00282EC90E09093D9
:100BD000D3028093D20286EC90E09093D50280936A
:100BE000D4021092D7021092D8021092D902109219
:100BF000DA0299E090935D038AE080935E0387E0D8
:100C000080935F038CE0809360038BE080936103AB
:100C100088E08093620328EC30E0309364032093F3
:100C2000630380935B038093650382E48093660390
:100C300090935C0381E08093670361E089E00E9408
:100C4000540280915D038F3F11F00E94AA0061E081
:100C500080915E030E94540261E080915F030E94D4
:100C6000540260E0809160030E94540261E0809130
:100C700061030E945402809162038F3F19F061E08A
:100C80000E945402809161030E94AA0080915F0338
:100C90000E94AA0080915E030E94AA0080916203D4
:100CA0000C94AA00CF93DF9300D000D0CDB7DEB76D
:100CB000789484B5826084BD84B5816084BD85B537
:100CC000826085BD85B5816085BD80916E00816043
:100CD00080936E00109281008091810082608093E9
:100CE00081008091810081608093810080918000EB
:100CF0008160809380008091B10084608093B10016
:100D00008091B00081608093B00080917A0084600F
:100D100080937A0080917A00826080937A0080913B
:100D20007A00816080937A0080917A008068809355
:100D30007A001092C100E091CE02F091CF0282E0E1
:100D40008083E091CE02F091CF021082E091CA023E
:100D5000F091CB021082E091CC02F091CD0280E1C3
:100D600080831092D602E091D202F091D30286E005
:100D70008083E091D002F091D102808180618083F4
:100D8000E091D002F091D102808188608083E0916F
:100D9000D002F091D102808180688083E091D002FE
:100DA000F091D10280818F7D808361E08DE00E948F
:100DB00054026AEF70E080E090E00E94880389E1CD
:100DC00091E00E94F403CE0101967C0188E8682E30
:100DD00082E0782E94E8C92E92E0D92E22E1A22E4C
:100DE000B12C30E0432E30E0532E8EEB92E00E9487
:100DF0002801892B61F08EEB92E00E940601E091C0
:100E0000AC028D3071F4E11112C00E945A044114F9
:100E1000510459F30E943401882339F30E940000E1
:100E2000E4CF8A3009F0B9C1EE2309F49DC0809166
:100E3000AD02803709F45AC00CF048C0853609F479
:100E400055C0883609F44CC08F3309F045C08CE09A
:100E500092E00E944E048DE192E00E94F4036091C2
:100E6000050170E090E080E04AE00E9406040E94E4
:100E7000460484E292E00E94F403609103017091C1
:100E8000040190E080E04AE00E9406040E944604CB
:100E90008BE292E00E94F4036091020170E090E026
:100EA00080E04AE00E9406040E94460481E392E04A
:100EB0000E94F403609100017091010190E080E0D4
:100EC0004AE00E9406040E9446044EC0833709F49B
:100ED00045C04CF4823751F089E392E00E944E0401
:100EE0000E945A0441C087578230B0F7E93010F0B1
:100EF0000E947A0481E00E94000280915D038F3F8E
:100F0000A1F080915E030E94AA00809163039091FA
:100F100064030E94850280915D030E948C00809191
:100F20006303909164030E9485028091AD02803733
:100F300009F4B5C0E4F4853609F40CC165E070E04D
:100F400080E090E00E94880380915D038F3F11F064
:100F50000E94AA0080E00E94000206C00E947A045B
:100F600089E191E00E94F4031092AC0250CF8237E5
:100F7000E9F1873719F70E94BA036093A7027093CB
:100F8000A8028093A9029093AA020E941D036CE01C
:100F90008EEB92E00E946A0110E000E08091030174
:100FA000909104010817190708F074C08EEB92E0C5
:100FB0000E942801892BC9F50E94BA032091A7023B
:100FC0003091A8024091A9025091AA02621B730BB2
:100FD000840B950B693E73408105910538F30E949F
:100FE000400389E492E00E944E04A8CF6AE070E0DA
:100FF00080E090E00E94880310E000E0809103010F
:10100000909104010817190758F4C8010E94D002F2
:10101000682F8EEB92E00E946A010F5F1F4FEECFA8
:1010200089E191E00E94F40389CF8EEB92E00E9467
:1010300006014C0180915E030E948C0063E085E014
:1010400090E00E94900260915C03C8010E949002AF
:1010500060915B03C4010E94900280915E030E9434
:10106000AA0080916303909164030E9485020E940C
:10107000C6030E94BA036093A7027093A8028093EC
:10108000A9029093AA028CE592E00E94F4030F5FFC
:101090001F4F84CF0E9440038EE592E0A4CF1092B0
:1010A000AB0281E00E94000283E792E00E944E04BE
:1010B00010E000E0809103019091040108171907E6
:1010C00008F040C0809102018830A9F0803129F1F8
:1010D000C7010E94F4038091AB028F5F8093AB0243
:1010E000883131F489E191E00E94F4031092AB025F
:1010F0000F5F1F4FDFCFC8010E94D0029F938F93D5
:101100007F926F92FF92EF920E9466090F900F906C
:101110000F900F900F900F90DBCFC8010E94D0026C
:101120009C0133273F932F931F929F93DF92CF927F
:10113000FF92EF920E9466090FB6F894DEBF0FBED1
:10114000CDBFC6CF89E191E00E94F40380E00E9408
:101150000002F4CE0E941D0380915C038250990B23
:10116000850102C0000F111F8A95E2F780915E038E
:101170000E948C0060915C036D5FC8010E94900228
:1011800080916303909164030E9485020E94C603CC
:101190000E9440038EE892E026CF8F3739F4EE2389
:1011A00009F435CEE150E093AC0231CEE03170F479
:1011B00091E09E0F9093AC02F0E0E355FD4F8083E9
:1011C000E92FF0E0E355FD4F108221CE67E08EEB72
:1011D00092E00E946A011BCEFC0188279927E894BF
:1011E00021912032E9F3293010F02E30C8F32B3250
:1011F00041F02D3239F4689404C00E943609820F00
:10120000911D219120532A30C0F31EF490958195B1
:101210009F4F089548E653E00E940F090895FA0190
:10122000A191B081009719F41097E1F0CD01DC0194
:10123000CD010D90002011F4C00113C0FB012191DC
:10124000222319F02015D9F7F3CFFB0121912015A6
:1012500019F41E92119606C02223C1F70D900020AA
:10126000A1F7D001FA01A193B08308957AE0979F86
:10127000902D879F802D910D11240895A1E21A2EA3
:10128000AA1BBB1BFD010DC0AA1FBB1FEE1FFF1F2A
:10129000A217B307E407F50720F0A21BB30BE40B7A
:1012A000F50B661F771F881F991F1A9469F76095C1
:1012B0007095809590959B01AC01BD01CF0108957B
:1012C000EE0FFF1F0590F491E02D0994AEE0B0E021
:1012D000ECE6F9E00C94150C0D891E8986E08C83F0
:1012E0001A8309838FEF9FE79E838D83AE01475E4C
:1012F0005F4F6F89788DCE0101960E9489092F81F9
:101300003885020F131FF80110822E96E4E00C942A
:10131000310CABE0B0E0EFE8F9E00C94070C7C0195
:101320003B018A01FC0117821682838181FFC8C1BB
:10133000CE0101965C01F7019381F30193FD859144
:1013400093FF81913F01882309F453C1853239F419
:1013500093FD859193FF81913F01853229F4B70177
:1013600090E00E94790BE7CF912C212C312CFFE1EA
:10137000F31538F08B3211F190F4803209F1833299
:1013800029F137FC3CC020ED280F2A3050F536FEFD
:1013900020C08AE0989E200D1124922E06C08D3226
:1013A00091F0803371F7689430F8F30193FD8591E3
:1013B00093FF81913F018111DACF21C0689431F808
:1013C000689432F8F2CF689433F8EFCF689434F829
:1013D000ECCFEAE02E9E200D1124222E689435F8E1
:1013E000E4CF8E3229F436FC04C1689436F8DDCFA0
:1013F0008C3619F4689437F8D8CF8836B1F2982F24
:101400009F7D95549330E0F08336A1F18337C1F18D
:10141000833509F063C02801F2E04F0E511CF8013A
:10142000C080D180692D70E036FC02C06FEF7FEF85
:10143000C6010E94630B4C01689437F882010AC010
:101440000C5F1F4FFFE3F98388248394912C65017F
:10145000E89437F833FE2DC0522C8114910471F5B5
:10146000552009F468CFB70180E290E00E94790B23
:101470005A94F6CFF801808189830E5F1F4FE4CF25
:101480002801F2E04F0E511CF801C080D180692D77
:1014900070E036FC02C06FEF7FEFC6010E946E0B5A
:1014A0004C018201D5CFB70180E290E00E94790B18
:1014B0002A942814190409F0B0F7CECFF60137FCAE
:1014C000859137FE81916F01B70190E00E94790B01
:1014D00051105A94F1E08F1A9108BFCF843619F059
:1014E000893609F077C0F80137FE6BC060817181E1
:1014F000828193810C5F1F4FF32DFF763F2E97FF64
:1015000009C090958095709561957F4F8F4F9F4F43
:10151000689437F82AE030E0A5010E94A90BC82E94
:10152000CA188C2C432C36FE0CC0E89440F8C91421
:1015300040F434FE05C032FC03C0F32DFE7E4F2E76
:10154000892C44FE95C0FE01EC0DF11D8081803395
:1015500009F087C0242D297E422E842D8870582EB4
:1015600043FC95C040FE8FC09C2C821418F42C0CB8
:10157000922C981844FE91C0B70180E390E00E943D
:10158000790B42FE09C088E790E041FE02C088E581
:1015900090E0B7010E94790BC91408F48AC0CA947C
:1015A000D12C9FEFC91AD90ACA0CDB1CF601829113
:1015B0006F01B70190E00E94790BAC14BD04B1F744
:1015C0004FCF60817181072E000C880B990B0E5F45
:1015D0001F4F92CFD32CE894D4F82AE030E085371F
:1015E00039F1232D297FD22E8F3601F148F4883529
:1015F000A9F0F701868197812B96E2E10C94230CE8
:10160000803749F08837A9F7D4FE02C06894D2F831
:1016100020E130E00DC06894D4F8F6CF34FE03C06A
:10162000822F8660D82E20E132E002C028E030E030
:10163000F801D7FE0FC060817181828193810C5FB8
:101640001F4FA5010E94A90BC82ECA183D2CE89473
:1016500037F867CF6081718190E080E00E5F1F4FA7
:10166000F0CF42FC02C0839478CF8394839475CFEB
:10167000842D867809F471CFF6CFB70180E290E02F
:101680000E94790B83948214C0F3512C73CF522C97
:101690005818821408F46ECFF8CF842D867809F498
:1016A0007BCF8BE241FE80E247FC8DE2B70190E008
:1016B00071CFB70180E390E00E94790B9A946CCFD0
:1016C0008FEF9FEF99CFFC010590615070400110A2
:1016D000D8F7809590958E0F9F1F0895FC0161505B
:1016E000704001900110D8F7809590958E0F9F1F44
:1016F00008950F931F93CF93DF93182F092FEB01BA
:101700008B8181FD09C01FEF0FEF812F902FDF919B
:10171000CF911F910F91089582FF14C02E813F81B8
:101720008C819D81281739073CF4E881F981CF012C
:1017300001969983888310838E819F8101969F8370
:101740008E83E3CFE885F985812F0995892BA1F355
:10175000DACFFA01AA27283051F1203181F1E8943B
:101760006F936E7F6E5F7F4F8F4F9F4FAF4FB1E094
:101770003ED0B4E03CD0670F781F891F9A1FA11D8F
:10178000680F791F8A1F911DA11D6A0F711D811D90
:10179000911DA11D20D009F468943F912AE0269F55
:1017A00011243019305D3193DEF6CF010895462FB4
:1017B0004770405D4193B3E00FD0C9F7F6CF462F95
:1017C0004F70405D4A3318F0495D31FD40524193FE
:1017D00002D0A9F7EACFB4E0A695979587957795BB
:1017E0006795BA95C9F700976105710508959B0142
:1017F000AC010A2E06945795479537952795BA95CB
:10180000C9F7620F731F841F951FA01D08952F92A3
:101810003F924F925F926F927F928F929F92AF9280
:10182000BF92CF92DF92EF92FF920F931F93CF93CD
:10183000DF93CDB7DEB7CA1BDB0B0FB6F894DEBF64
:101840000FBECDBF09942A88398848885F846E848A
:101850007D848C849B84AA84B984C884DF80EE80D4
:10186000FD800C811B81AA81B981CE0FD11D0FB6DD
:10187000F894DEBF0FBECDBFED010895F894FFCF01
:10188000C80008000242000000006A01CA00F70018
:10189000B701280106011A010D0A002D2D2D206522
:1018A0006570202D2D2D00732C3C636869703E2CD3
:1018B0003C73697A653E2C3C6F72673E2C3C7069C4
:1018C0006E5F64656C61793E202D205365742063E2
:1018D0006F6E66696775726174696F6E003F202D67
:1018E000205072696E742063757272656E74206325
:1018F0006F6E66696775726174696F6E0072202D14
:10190000205265616420656570726F6D0077202DCF
:1019100020496E6974696174652077726974652005
:101920006D6F64650065202D2045726173652065CB
:101930006570726F6D0070202D2048657820707280
:10194000696E7420656570726F6D20636F6E74656B
:101950006E740068202D20546869732068656C706F
:10196000002C0007696E76616C69642073697A6582
:101970000007696E76616C696420636869700007AE
:10198000696E76616C6964206F7267002D2D2D2061
:1019900073657474696E6773202D2D2D00636869FB
:1019A000703A200073697A653A20006F72673A20B6
:1019B0000064656C61793A2000696E76616C6964D7
:1019C00020636F6D6D616E640007646174612072E5
:1019D0006561642074696D656F7574000C000D0A93
:1019E0002D2D2D20777269746520646F6E65202D12
:1019F0002D2D002D2D2D204865782064756D7020CB
:101A00002D2D2D0025303258253032582000076505
:0E1A10006570726F6D20657261736564000011
:00000001FF
